:020000040800F2
:1000000000500020E9150008751500087915000852
:100010007D15000881150008851500080000000006
:10002000000000000000000000000000891500082A
:100030008D150008000000009115000895150008B6
:100040003116000831160008311600083116000874
:100050003116000831160008311600083116000864
:100060003116000831160008311600083116000854
:100070003116000831160008311600083116000844
:100080003116000831160008311600083116000834
:100090003116000831160008311600083116000824
:1000A0003116000831160008311600083116000814
:1000B0003116000831160008311600083116000804
:1000C00031160008311600083116000831160008F4
:1000D00031160008311600083116000831160008E4
:1000E0003116000831160008311600080000000023
:1000F0000000000000000000000000000000000000
:0C01000000000000000000005FF808F1A3
:10010C0010B5054C237833B9044B13B10448AFF345
:10011C0000800123237010BD0C00002000000000A3
:10012C0090160008084B10B51BB108490848AFF3EE
:10013C0000800848036803B910BD074B002BFBD0A7
:10014C00BDE81040184700BF000000001000002060
:10015C00901600080C0000200000000010B50446AA
:10016C000E4B18784FF47A73B3FBF0F30C4A10680B
:10017C00B0FBF3F000F09CFA58B90F2C0BD800220E
:10018C0021464FF0FF3000F061FA044B5C60002018
:10019C0010BD012010BD012010BD00BF00000020CB
:1001AC000800002008B5074A136843F010031360D9
:1001BC00032000F039FA0020FFF7D0FF01F060F9BE
:1001CC00002008BD00200240034A13680349097847
:1001DC000B441360704700BF280000200000002073
:1001EC00014B1868704700BF2800002038B5044642
:1001FC00FFF7F6FF0546B4F1FF3F02D0044B1B7826
:10020C001C44FFF7EDFF401B8442FAD838BD00BFF9
:10021C00000000200368D86C704700BF70B483B036
:10022C000023019390F82430012B00F088800123E7
:10023C0080F824304B68062B0ED80668756B03EBE0
:10024C008303053B1F249C4025EA04040A6802FA38
:10025C0003F3234373631EE00C2B0ED805682A6B43
:10026C0003EB8303233B1F249C4022EA04040A680B
:10027C0002FA03F323432B630DE00568EA6A03EBF0
:10028C008303413B1F249C4022EA04040A6802FABF
:10029C0003F32343EB620B68092B0ED90668F56850
:1002AC0003EB43031E3B07249C4025EA04048A68A5
:1002BC0002FA03F32343F3600CE00668356903EBA1
:1002CC00430307249C4025EA04048A6802FA03F3DA
:1002DC00234333610B68103B012B26D803681A4A61
:1002EC0093421CD19A6812F4000F20D19A6842F400
:1002FC0000029A600B68102B1BD1144B1B68144A1C
:10030C00A2FB03239B0C03EB83035A00019202E034
:10031C00019B013B0193019B002BF9D10AE0836AFD
:10032C0043F020038362012304E0002302E0002356
:10033C0000E00023002280F82420184600E0022070
:10034C0003B070BC704700BF0024014008000020BF
:10035C0083DE1B4330B583B00023019303689A6896
:10036C0012F0010F2FD19A6842F001029A60174BDC
:10037C001B68174AA2FB03239B0C019302E0019B11
:10038C00013B0193019B002BF9D10446FFF728FF99
:10039C00054611E0FFF724FF401B02280CD9A36A85
:1003AC0043F01003A362E36A43F00103E36200230A
:1003BC0084F82430012007E023689B6813F0010FB8
:1003CC00E8D0002000E0002003B030BD0800002081
:1003DC0083DE1B4390F82430012B71D010B50446FA
:1003EC00012380F82430FFF7B5FF0346002863D1C2
:1003FC00A26A22F4407222F0010242F48072A262DC
:10040C00226830498A4205D1A1F58061496811F40E
:10041C00702F0ED1A16A21F48011A162516811F4E0
:10042C00806F1CD0A16A21F4405141F48051A1622B
:10043C0015E0A16A41F48011A16223498A4203D0DC
:10044C0001F580618A420AD11F49496811F4806F15
:10045C0005D0A16A21F4405141F48051A162A16AF6
:10046C0011F4805F04D0E16A21F00601E16201E041
:10047C000021E162002184F824106FF00201116068
:10048C002268916801F46021B1F5602F0ED10D49FD
:10049C008A4205D1A1F58061496811F4702F05D10C
:1004AC00916841F4A0019160184610BD916841F427
:1004BC0080119160184610BD002284F8242010BDD4
:1004CC0002207047002801400024014038B5036821
:1004DC009A6812F0010F1ED004469A6822F00102AD
:1004EC009A60FFF77DFE05460EE0FFF779FE401B94
:1004FC00022809D9A36A43F01003A362E36A43F00C
:10050C000103E362012038BD23689B6813F0010FDF
:10051C00EBD1002038BD002038BD00BF00287DD0B5
:10052C0038B50446836A23B9C36280F8243000F0DE
:10053C00C9FF2046FFF7CAFFA36A13F0100F67D15B
:10054C00002865D1A36A23F4885323F0020343F0F7
:10055C000203A3626268E3691343E16843EA41035F
:10056C00A268B2F5807F04D0012A05D14FF48075C2
:10057C0003E04FF4807500E000256269012A0FD179
:10058C0031B9A269013A45EA423242F4006507E00A
:10059C00A26A42F02002A262E26A42F00102E26226
:1005AC0021684A6822F469422A434A6021688D68AE
:1005BC001B4A2A401A438A60A268B2F5807F01D098
:1005CC00012A03D12269013A110500E000212568B6
:1005DC00EA6A22F470020A43EA6222689168114ABC
:1005EC000A40934208D10023E362A36A23F0030379
:1005FC0043F00103A36238BDA36A23F0120343F056
:10060C001003A362E36A43F00103E362012038BDE7
:10061C00A36A43F01003A362012038BD0120704788
:10062C00FDF7E1FFFE0E1FFF074AD36823F4E063DA
:10063C001B041B0C000200F4E060184340F0BF6088
:10064C0040F40030D060704700ED00E030B4164B41
:10065C00DB68C3F30223C3F10704042C28BF042472
:10066C001D1D062D01D9DD1E00E00025012303FA16
:10067C0004F4013C2140A940AB40013B1A400A4321
:10068C00002806DA00F00F001201D2B2074B1A5400
:10069C0007E01201D2B200F1604000F5614080F831
:1006AC00002330BC704700BF00ED00E014ED00E00B
:1006BC000138B0F1807F0AD2064B5860F021064A0F
:1006CC0082F823100020986007221A6070470120DE
:1006DC00704700BF10E000E000ED00E0F0B583B023
:1006EC0000263446D5E00122A2400B6813409A4202
:1006FC0040F0CE804D68122D2DD00BD8022D27D076
:10070C0003D85DB3012D1ED035E0032D30D0112D53
:10071C001BD030E0614FBD4220D008D8A7F5801720
:10072C00BD421BD007F58037BD4224D116E05C4F8B
:10073C00BD4213D007F58037BD420FD0A7F5801707
:10074C00BD4218D10AE0CE6815E0CE68043612E03E
:10075C00CE6808360FE0CE680C360CE08D684DB1D3
:10076C00012D02D10261082605E04261082602E053
:10077C00002600E00426FF2B01D8864601E000F19C
:10078C00040EFF2B01D8A20002E0A4F10802920093
:10079C00DEF800700F25954027EA050506FA02F2EF
:1007AC002A43CEF800204A6812F0805F70D03D4A90
:1007BC00956945F001059561926902F0010201927B
:1007CC00019AA708BD1C384A52F8255004F00302C0
:1007DC0092004FF00F0E0EFA02FE25EA0E0E334D6C
:1007EC00A8420DD005F58065A8420BD005F58065B3
:1007FC00A84209D005F58065A84207D1032506E07B
:10080C00002504E0012502E0022500E0042505FA9C
:10081C0002F24EEA02020237234D45F827204A68BD
:10082C0012F4803F05D005F580652A681A432A60CA
:10083C0004E01F4D2A6822EA03022A604A6812F477
:10084C00003F04D01A4D6A681A436A6004E0184DE0
:10085C006A6822EA03026A604A6812F4801F04D0B4
:10086C00134DAA681A43AA6004E0114DAA6822EA43
:10087C000302AA604A6812F4001F04D00C4DEA6807
:10088C001343EB6004E00A4DEA6822EA0303EB60D1
:10089C0001340F2C7FF627AF03B0F0BD0000211000
:1008AC00000031100010024000000140000801401F
:1008BC00000401400AB101617047090401617047ED
:1008CC0082B0084B1B68084AA2FB03235B0A00FB9F
:1008DC0003F0019000BF019B5A1E0192002BF9D12D
:1008EC0002B0704708000020D34D621070B582B082
:1008FC000446036813F0010F6BD0A84B5B6803F040
:10090C000C03042B0AD0A54B5B6803F00C03082BDB
:10091C000DD1A24B5B6813F4803F08D09F4B1B6832
:10092C0013F4003F55D06368002B52D1B8E16368D3
:10093C00B3F5803F05D1994A136843F480331360B3
:10094C0026E063B903F1804303F504331A6822F4FB
:10095C0080321A601A6822F480221A6018E0B3F50B
:10096C00A02F0CD103F18043A3F53C331A6842F459
:10097C0080221A601A6842F480321A6008E0874BB1
:10098C001A6822F480321A601A6822F480221A60E3
:10099C0063687BB1FFF724FC054605E0FFF720FCFC
:1009AC00401B642800F27E817C4B1B6813F4003FD3
:1009BC00F4D00EE0FFF714FC054605E0FFF710FC41
:1009CC00401B642800F27081744B1B6813F4003FC9
:1009DC00F4D1236813F0020F50D0704B5B6813F006
:1009EC000C0F0AD06D4B5B6803F00C03082B16D16F
:1009FC006A4B5B6813F4803F11D1684B1B6813F092
:100A0C00020F03D02369012B40F05081634A136815
:100A1C0023F0F803616943EAC10313602EE02369F4
:100A2C00D3B101225E4B1A60FFF7DAFB054605E0F5
:100A3C00FFF7D6FB401B022800F23A81574B1B688C
:100A4C0013F0020FF4D0554A136823F0F8036169D0
:100A5C0043EAC103136011E00022514B1A60FFF707
:100A6C00BFFB054605E0FFF7BBFB401B022800F26D
:100A7C0021814A4B1B6813F0020FF4D1236813F049
:100A8C00080F29D0A369ABB10122464B1A60FFF7BE
:100A9C00A7FB054605E0FFF7A3FB401B022800F26D
:100AAC000B813E4B5B6A13F0020FF4D00120FFF771
:100ABC0007FF11E000223B4B1A60FFF791FB054644
:100ACC0005E0FFF78DFB401B022800F2F780334B4B
:100ADC005B6A13F0020FF4D1236813F0040F00F0DB
:100AEC0089802E4BDB6913F0805F0BD12B4BDA69BD
:100AFC0042F08052DA61DB6903F080530193019B71
:100B0C00012500E00025284B1B6813F4807F13D1CE
:100B1C00254A136843F480731360FFF761FB0646A4
:100B2C0005E0FFF75DFB801B642800F2C9801E4BBB
:100B3C001B6813F4807FF4D0E368012B05D1174AAE
:100B4C00136A43F00103136222E063B903F180439B
:100B5C0003F504331A6A22F001021A621A6A22F0AF
:100B6C0004021A6214E0052B09D10C4B1A6A42F0EC
:100B7C0004021A621A6A42F001021A6208E0074B78
:100B8C001A6A22F001021A621A6A22F004021A622C
:100B9C00E368CBB1FFF724FB06460FE000100240E0
:100BAC00000042428004424200700040FFF718FBF4
:100BBC00801B41F28833984200F28480494B1B6AB7
:100BCC0013F0020FF2D00FE0FFF70AFB064606E027
:100BDC00FFF706FB801B41F28833984274D8414BD7
:100BEC001B6A13F0020FF3D125B13E4AD36923F0EF
:100BFC008053D361E369002B68D03A4A526802F003
:100C0C000C02082A64D0022B37D10022364B1A6012
:100C1C00FFF7E6FA054604E0FFF7E2FA401B02286C
:100C2C0058D8304B1B6813F0007FF5D1236AB3F50D
:100C3C00803F06D12B494B6823F40032A368134341
:100C4C004B602848436823F47411236A626A134387
:100C5C000B4343600122244B1A60FFF7C1FA044690
:100C6C0004E0FFF7BDFA001B022835D81D4B1B68AA
:100C7C0013F0007FF5D0002031E000221A4B1A60EF
:100C8C00FFF7AEFA044604E0FFF7AAFA001B0228AD
:100C9C0024D8144B1B6813F0007FF5D100201EE004
:100CAC0001201CE003201AE0032018E0012016E0CC
:100CBC00032014E0032012E0032010E003200EE0D8
:100CCC0003200CE003200AE0032008E0002006E0EB
:100CDC00012004E0032002E0032000E0032002B026
:100CEC0070BD00BF001002406000424230B486B0BC
:100CFC00164D02AC28686968AA68EB680FC42B8A89
:100D0C00ADF80430124B5B6803F00C02082A19D1C1
:100D1C00C3F3834206A90A4412F8100C13F4803F63
:100D2C000CD00B4B5B68C3F340430B4413F8142CEF
:100D3C00084B03FB00F0B0FBF2F004E0064B03FBA6
:100D4C0000F000E0034806B030BC7047A81600085D
:100D5C000010024000127A0000093D0070B55C4B97
:100D6C001B6803F007038B420BD2594A136823F01C
:100D7C0007030B431360136803F00703994240F019
:100D8C009780036813F0020F06D0524C636823F06F
:100D9C00F0028368134363600D460446036813F046
:100DAC00010F4DD04268012A05D14A4B1B6813F440
:100DBC00003F0DD17EE0022A05D1464B1B6813F093
:100DCC00007F05D178E0434B1B6813F0020F75D000
:100DDC0040494B6823F0030313434B60FFF700FAC1
:100DEC0006466368012B0ED106E0FFF7F9F9801B6C
:100DFC0041F28833984263D8364B5B6803F00C039E
:100E0C00042BF2D11CE0022B15D106E0FFF7E8F918
:100E1C00801B41F28833984254D82E4B5B6803F008
:100E2C000C03082BF2D10BE0FFF7DAF9801B41F22F
:100E3C008833984248D8274B5B6813F00C0FF3D1DA
:100E4C00234B1B6803F007039D420AD2204A136808
:100E5C0023F007032B431360136803F007039D4231
:100E6C0034D1236813F0040F06D01A494B6823F4CD
:100E7C00E062E36813434B60236813F0080F07D05C
:100E8C00144A536823F46053216943EAC103536045
:100E9C00FFF72CFF0F4B5B68C3F303130E4AD35CB5
:100EAC00D8400E4B18600020FFF758F9002070BD99
:100EBC00012070BD012070BD012070BD012070BDEE
:100ECC00032070BD032070BD032070BD012070BDD8
:100EDC000020024000100240DC1600080800002030
:100EEC0070B582B00446036813F0010F5CD03E4B22
:100EFC00DB6913F0805F0BD13B4BDA6942F0805217
:100F0C00DA61DB6903F080530193019B012600E059
:100F1C000026364B1B6813F4807F12D1334A1368BA
:100F2C0043F480731360FFF75BF9054604E0FFF7A9
:100F3C0057F9401B64284FD82C4B1B6813F4807F47
:100F4C00F5D0294B1B6A13F4407321D0626802F46C
:100F5C00407293421CD0244A136A23F440702449F3
:100F6C0001250D6000250D60106213F0010F0FD0EC
:100F7C00FFF736F9054606E0FFF732F9401B41F260
:100F8C00883398422AD8184B1B6A13F0020FF3D0FF
:100F9C0015490B6A23F44072636813430B621EB14C
:100FAC00CB6923F08053CB61236813F0020F06D07A
:100FBC000D494B6823F44042A36813434B602368EC
:100FCC0013F0100F0CD008494B6823F48002E3682F
:100FDC0013434B60002004E0032002E0032000E0F8
:100FEC00002002B070BD00BF001002400070004035
:100FFC004004424208B5012000F0F0F808BD00BFE3
:10100C0008B5282000F0EAF808BD00BF08B5062096
:10101C0000F0E4F808BD00BF08B50C2000F0DEF8C5
:10102C0008BD00BF08B5FFF7EBFFFFF7F5FFFFF7B3
:10103C00EDFFFFF7DFFF08BD38B50D4600F00700E8
:10104C00C00040F0400000F0C9F8002403E0285D27
:10105C0000F0B8F80134072CF9DD38BD2DE9F04368
:10106C0089B000240494059406940794294B9A693A
:10107C0042F020029A619A6902F020020192019AD0
:10108C009A6942F004029A619A6902F0040202928F
:10109C00029A9A6942F008029A619B6903F008036C
:1010AC000393039B1C4E22460E213046FFF702FC95
:1010BC001A4D2246F0212846FFF7FCFB0E23049321
:1010CC004FF00109CDF8149006940227079704A954
:1010DC003046FFF703FB802304934FF00308CDF851
:1010EC00148004A93046FFF7F9FACDF81090CDF82A
:1010FC00148004A92846FFF7F1FAF0230493112376
:10110C0005930694079704A92846FFF7E7FA09B058
:10111C00BDE8F0830010024000080140000C0140C3
:10112C0082B00190019B13B1019B013B019302B072
:10113C00704700BF10B504461B4B5A6942F00402BD
:10114C005A611A6942F002021A610120FFF74EF847
:10115C00F022164B5A6114F0080F04D01A461B6982
:10116C0043F08003136114F0040F04D00F4A136989
:10117C0043F04003136114F0020F04D00B4A1369BF
:10118C0043F02003136114F0010F04D0074A1369D4
:10119C0043F0100313610120FFF728F8024A53694A
:1011AC0043F00203536110BD00080140000C0140E4
:1011BC0010B504460009FFF7BDFF2046FFF7BAFF44
:1011CC0010BD00BF08B5044A136943F0080313614E
:1011DC00FFF7EEFF08BD00BF0008014008B5044A48
:1011EC00536943F008035361FFF7E2FF08BD00BFEA
:1011FC000008014070B5284B04221A6108221A61BC
:10120C0002201861FFF78CFF244B9B6813F0100F22
:10121C0001D1002400E01024204B9B6813F0200F18
:10122C0001D044F020041D4B9B6813F0400F01D0FB
:10123C0044F04004194B9B6813F0800F01D044F02C
:10124C008004154E022575612846FFF769FF35614C
:10125C002846FFF765FF114B9B6813F0100F01D068
:10126C0044F001040D4B9B6813F0200F01D044F0A7
:10127C0002040A4B9B6813F0400F01D044F00404A5
:10128C00064B9B6813F0800F01D044F00804022237
:10129C00014B5A61204670BD00080140000C014012
:1012AC00FEE700BF00B585B00023019302930393C2
:1012BC001148124A02604FF4807282600122C260AF
:1012CC0043614FF46021C16143600261FFF726F96D
:1012DC0008B1FFF7E5FF07230193012302930023D5
:1012EC00039301A90448FEF799FF08B1FFF7D8FF53
:1012FC0005B05DF804FB00BF5C0000200024014039
:10130C0000B585B000230193029303931148124A50
:10131C0002604FF4807282600122C26043614FF41C
:10132C006021C16143600261FFF7F8F808B1FFF773
:10133C00B7FF08230193012302930023039301A910
:10134C000448FEF76BFF08B1FFF7AAFF05B05DF884
:10135C0004FB00BF2C0000200028014000B595B014
:10136C00282200210DEB020000F084F900230593E4
:10137C0006930793089309930193029303930493A1
:10138C0001220A924FF480330B930E920222119297
:10139C0012934FF4E01313930AA8FFF7A7FA08B1BE
:1013AC00FFF77EFF0F23059302210691002307937D
:1013BC004FF480620892099305A8FFF7CFFC08B19F
:1013CC00FFF76EFF022301934FF40043039301A830
:1013DC00FFF786FD08B1FFF763FF15B05DF804FB5E
:1013EC0010B588B0FEF7DEFEFFF7B8FFFFF736FE4C
:1013FC00FFF758FFFFF784FF1E4C2046FEF7EAFF6D
:10140C002046FEF707FF1C4C2046FEF7E3FF204664
:10141C00FEF700FFFFF706FE184C06AB206861686C
:10142C0003C306A90020FFF707FE04AB224652F8BF
:10143C00080F516803C304A90120FFF7FDFD02AB9F
:10144C00224652F8100F516803C302A90220FFF77D
:10145C00F3FD6B4654F8180F616803C3694603200B
:10146C00FFF7EAFD8020FFF7ADFE0120FFF7C2FE7B
:10147C00F8E700BF5C0000202C000020BC16000820
:10148C0082B00E4B9A6942F001029A619A6902F09D
:10149C0001020092009ADA6942F08052DA61DB694B
:1014AC0003F080530193019B054A536823F0E063DA
:1014BC0043F00073536002B0704700BF001002404D
:1014CC000000014000B589B00023049305930693F6
:1014DC00079303681F4A93421BD11F4B9A6942F42E
:1014EC0000729A619A6902F400720092009A9A69E9
:1014FC0042F004029A619B6903F004030193019B7F
:10150C00802304930323059304A91448FFF7E6F8FA
:10151C001DE0134A93421AD10F4B9A6942F4806230
:10152C009A619A6902F480620292029A9A6942F074
:10153C0008029A619B6903F008030393039B012340
:10154C0004930323059304A90648FFF7C7F809B0D1
:10155C005DF804FB0024014000100240000801402B
:10156C0000280140000C0140704700BFFEE700BF9F
:10157C00FEE700BFFEE700BFFEE700BF704700BFFD
:10158C00704700BF704700BF08B5FEF71DFE08BDD1
:10159C000F4B1A6842F001021A6059680D4A0A4052
:1015AC005A601A6822F0847222F480321A601A6827
:1015BC0022F480221A605A6822F4FE025A604FF418
:1015CC001F029A604FF00062034B9A60704700BF95
:1015DC00001002400000FFF800ED00E0002103E0E5
:1015EC000B4B5B58435004310A480B4B42189A4240
:1015FC00F6D30A4A02E0002342F8043B084B9A4215
:10160C00F9D3FFF7C5FF00F00FF8FFF7E9FE7047BD
:10161C00FC160008000000200C0000200C0000202C
:10162C008C000020FEE700000E4B70B51E460E4CE1
:10163C000025E41AA410A54204D056F8253098478A
:10164C000135F8E700F01EF8084B094C1E46E41A69
:10165C00A4100025A54204D056F825309847013532
:10166C00F8E770BDF4160008F4160008F41600082C
:10167C00F816000803460244934202D003F8011BFB
:10168C00FAE77047F8B500BFF8BC08BC9E46704737
:0C169C00F8B500BFF8BC08BC9E467047C3
:1016A80002030405060708090A0B0C0D0E0F10109B
:1016B800010200000E0A0E00000000000E0A0A0ACD
:1016C8000A11110E0C1204081E00000004150E1B4E
:1016D8000E150400000000000000000001020304D1
:0C16E800060708090000000001020304CE
:0416F40031010008B8
:0416F8000D010008D8
:0C16FC00010000001000000000A24A04E1
:04000005080015E9F1
:00000001FF
