:020000040800F2
:10000000005000206925000831240008352400082C
:10001000392400083D2400084124000800000000A5
:10002000000000000000000000000000452400085F
:1000300049240008000000004D2400085124000855
:10004000B1250008B1250008B1250008B125000838
:10005000B1250008B1250008B1250008B125000828
:10006000B1250008B1250008B1250008B125000818
:10007000B1250008B1250008B1250008B125000808
:10008000B1250008B1250008B1250008B1250008F8
:10009000B1250008B1250008B1250008B1250008E8
:1000A000B1250008B1250008B1250008B1250008D8
:1000B000B1250008B1250008B1250008B1250008C8
:1000C000B1250008B1250008B1250008B1250008B8
:1000D000B1250008B1250008B1250008B1250008A8
:1000E000B1250008B1250008B12500080000000076
:1000F0000000000000000000000000000000000000
:0C01000000000000000000005FF808F1A3
:1001100010B5054C237833B9044B13B10448AFF341
:1001200000800123237010BDE001002000000000CA
:1001300050530008084B10B51BB108490848AFF3ED
:1001400000800848036803B910BD074B002BFBD0A3
:10015000BDE81040184700BF00000000E401002087
:1001600050530008E00100200000000081F0004131
:1001700002E000BF83F0004330B54FEA41044FEA8C
:10018000430594EA050F08BF90EA020F1FBF54EA27
:10019000000C55EA020C7FEA645C7FEA655C00F0C3
:1001A000E2804FEA5454D4EB5555B8BF6D420CDD94
:1001B0002C4480EA020281EA030382EA000083EA17
:1001C000010180EA020281EA0303362D88BF30BDB7
:1001D00011F0004F4FEA01314FF4801C4CEA11310D
:1001E00002D0404261EB410113F0004F4FEA03336C
:1001F0004CEA133302D0524263EB430394EA050FF7
:1002000000F0A780A4F10104D5F1200E0DDB02FA65
:100210000EFC22FA05F2801841F1000103FA0EF2F9
:10022000801843FA05F359410EE0A5F120050EF1BF
:10023000200E012A03FA0EFC28BF4CF0020C43FAF0
:1002400005F3C01851EBE37101F0004507D54FF0FD
:10025000000EDCF1000C7EEB00006EEB0101B1F54D
:10026000801F1BD3B1F5001F0CD349085FEA300093
:100270004FEA3C0C04F101044FEA445212F5800F9E
:1002800080F09A80BCF1004F08BF5FEA500C50F13B
:10029000000041EB045141EA050130BD5FEA4C0C1E
:1002A000404141EB010111F4801FA4F10104E9D1A7
:1002B00091F0000F04BF01460020B1FA81F308BF9E
:1002C0002033A3F10B03B3F120020CDA0C3208DD6A
:1002D00002F1140CC2F10C0201FA0CF021FA02F145
:1002E0000CE002F11402D8BFC2F1200C01FA02F1B5
:1002F00020FA0CFCDCBF41EA0C019040E41AA2BFDA
:1003000001EB0451294330BD6FEA04041F3C1CDAA1
:100310000C340EDC04F11404C4F1200220FA04F0C1
:1003200001FA02F340EA030021FA04F345EA03016B
:1003300030BDC4F10C04C4F1200220FA02F001FA2D
:1003400004F340EA0300294630BD21FA04F02946AF
:1003500030BD94F0000F83F4801306BF81F4801148
:100360000134013D4EE77FEA645C18BF7FEA655CBB
:1003700029D094EA050F08BF90EA020F05D054EA8D
:10038000000C04BF1946104630BD91EA030F1EBF92
:100390000021002030BD5FEA545C05D14000494196
:1003A00028BF41F0004130BD14F580043CBF01F589
:1003B000801130BD01F0004545F0FE4141F470016F
:1003C0004FF0000030BD7FEA645C1ABF194610464A
:1003D0007FEA655C1CBF0B46024650EA013406BF4B
:1003E00052EA033591EA030F41F4002130BD00BF0A
:1003F00090F0000F04BF0021704730B54FF48064C7
:1004000004F132044FF000054FF0000150E700BF47
:1004100090F0000F04BF0021704730B54FF48064A6
:1004200004F1320410F0004548BF40424FF0000193
:100430003EE700BF42004FEAE2014FEA31014FEAD6
:1004400002701FBF12F07F4393F07F4F81F0605125
:10045000704792F0000F14BF93F07F4F704730B594
:100460004FF4607401F0004521F0004120E700BF27
:1004700050EA010208BF704730B54FF000050AE0AE
:1004800050EA010208BF704730B511F0004502D5AF
:10049000404261EB41014FF4806404F132045FEAB1
:1004A000915C3FF4DCAE4FF003025FEADC0C18BF56
:1004B00003325FEADC0C18BF033202EBDC02C2F14C
:1004C000200300FA03FC20FA02F001FA03FE40EADE
:1004D0000E0021FA02F11444C1E600BF70B54FF0DE
:1004E000FF0C4CF4E06C1CEA11541DBF1CEA1355C0
:1004F00094EA0C0F95EA0C0F00F0DEF82C4481EA28
:10050000030621EA4C5123EA4C5350EA013518BF47
:1005100052EA033541F4801143F4801338D0A0FB34
:1005200002CE4FF00005E1FB02E506F00042E0FBE1
:1005300003E54FF00006E1FB03569CF0000F18BFE7
:100540004EF0010EA4F1FF04B6F5007F64F540748F
:1005500004D25FEA4E0E6D4146EB060642EAC62122
:1005600041EA55514FEAC52040EA5E504FEACE2E8F
:10057000B4F1FD0C88BFBCF5E06F1ED8BEF1004F92
:1005800008BF5FEA500E50F1000041EB045170BD0E
:1005900006F0004646EA010140EA020081EA030152
:1005A000B4EB5C04C2BFD4EB0C0541EA045170BD4E
:1005B00041F480114FF0000E013C00F3AB8014F1C8
:1005C000360FDEBF002001F0004170BDC4F1000411
:1005D000203C35DA0C341BDC04F11404C4F1200592
:1005E00000FA05F320FA04F001FA05F240EA0200ED
:1005F00001F0004221F0004110EBD37021FA04F623
:1006000042EB06015EEA430E08BF20EAD37070BDDC
:10061000C4F10C04C4F1200500FA04F320FA05F03B
:1006200001FA04F240EA020001F0004110EBD3703D
:1006300041F100015EEA430E08BF20EAD37070BDAD
:10064000C4F1200500FA05F24EEA020E20FA04F386
:1006500001FA05F243EA020321FA04F001F0004135
:1006600021FA04F220EA020000EBD3705EEA430EA6
:1006700008BF20EAD37070BD94F0000F0FD101F0D5
:100680000046400041EB010111F4801F08BF013C0E
:10069000F7D041EA060195F0000F18BF704703F04C
:1006A0000046520043EB030313F4801F08BF013DD3
:1006B000F7D043EA0603704794EA0C0F0CEA13558F
:1006C00018BF95EA0C0F0CD050EA410618BF52EA49
:1006D0004306D1D181EA030101F000414FF000004F
:1006E00070BD50EA410606BF1046194652EA43065D
:1006F00019D094EA0C0F02D150EA013613D195EAD1
:100700000C0F05D152EA03361CBF104619460AD118
:1007100081EA030101F0004141F0FE4141F4700122
:100720004FF0000070BD41F0FE4141F4780170BD12
:1007300070B54FF0FF0C4CF4E06C1CEA11541DBF77
:100740001CEA135594EA0C0F95EA0C0F00F0A7F879
:10075000A4EB050481EA030E52EA03354FEA0131A6
:1007600000F088804FEA03334FF0805545EA1313B9
:1007700043EA12634FEA022245EA111545EA106581
:100780004FEA00260EF000419D4208BF964244F118
:10079000FD0404F5407402D25B084FEA3202B61A37
:1007A00065EB03055B084FEA32024FF480104FF40B
:1007B000002CB6EB020E75EB030E22BFB61A75467F
:1007C00040EA0C005B084FEA3202B6EB020E75EB12
:1007D000030E22BFB61A754640EA5C005B084FEA7A
:1007E0003202B6EB020E75EB030E22BFB61A754647
:1007F00040EA9C005B084FEA3202B6EB020E75EB52
:10080000030E22BFB61A754640EADC0055EA060E12
:1008100018D04FEA051545EA16754FEA06164FEA55
:10082000C30343EA52734FEAC2025FEA1C1CC0D101
:1008300011F4801F0BD141EA00014FF000004FF08E
:10084000004CB6E711F4801F04BF01430020B4F14F
:10085000FD0C88BFBCF5E06F3FF6AFAEB5EB030C07
:1008600004BFB6EB020C5FEA500C50F1000041EB04
:10087000045170BD0EF0004E4EEA113114EB5C04D1
:10088000C2BFD4EB0C0541EA045170BD41F48011A4
:100890004FF0000E013C90E645EA060E8DE60CEAAC
:1008A000135594EA0C0F08BF95EA0C0F3FF43BAFC9
:1008B00094EA0C0F0AD150EA01347FF434AF95EA80
:1008C0000C0F7FF425AF104619462CE795EA0C0F64
:1008D00006D152EA03353FF4FDAE1046194622E731
:1008E00050EA410618BF52EA43067FF4C5AE50EA0B
:1008F00041047FF40DAF52EA43057FF4EBAE12E7FB
:100900004FF0FF3C06E000BF4FF0010C02E000BFDB
:100910004FF0010C4DF804CD4FEA410C7FEA6C5CBE
:100920004FEA430C18BF7FEA6C5C1BD001B050EA61
:10093000410C0CBF52EA430C91EA030F02BF90EA4C
:10094000020F0020704710F1000F91EA030F58BF0B
:10095000994208BF90422CBFD8176FEAE37040F06D
:10096000010070474FEA410C7FEA6C5C02D150EA0B
:10097000013C07D14FEA430C7FEA6C5CD6D152EAC6
:10098000033CD3D05DF8040B704700BF844610468B
:1009900062468C461946634600E000BF01B5FFF78A
:1009A000B7FF002848BF10F1000F01BD4DF808ED5A
:1009B000FFF7F4FF0CBF012000205DF808FB00BF2B
:1009C0004DF808EDFFF7EAFF34BF012000205DF885
:1009D00008FB00BF4DF808EDFFF7E0FF94BF0120D2
:1009E00000205DF808FB00BF4DF808EDFFF7CEFFD3
:1009F00094BF012000205DF808FB00BF4DF808ED12
:100A0000FFF7C4FF34BF012000205DF808FB00BFE2
:100A10004FEA410C7FEA6C5C02D150EA013C0AD1FA
:100A20004FEA430C7FEA6C5C02D152EA033C02D1EC
:100A30004FF0000070474FF0010070474FEA41024D
:100A4000B2F1E04324BFB3F5001CDCF1FE5C0DD92C
:100A500001F0004C4FEAC0024CEA5070B2F1004F76
:100A600040EB830008BF20F00100704711F0804F79
:100A700021D113F13872BCBF01F00040704741F43E
:100A800080114FEA5252C2F11802C2F1200C10FA42
:100A90000CF320FA02F018BF40F001004FEAC12326
:100AA0004FEAD32303FA0CFC40EA0C0023FA02F3CA
:100AB0004FEA4303CCE77FEA625307D150EA0133A0
:100AC0001EBF4FF0FE4040F44000704701F0004070
:100AD00040F0FE4040F40000704700BF80F000404E
:100AE00002E000BF81F0004142001FBF5FEA410306
:100AF00092EA030F7FEA226C7FEA236C6AD04FEA06
:100B00001262D2EB1363C1BFD2184140484041404A
:100B1000B8BF5B42192B88BF704710F0004F40F4FC
:100B2000000020F07F4018BF404211F0004F41F418
:100B3000000121F07F4118BF494292EA030F3FD0E4
:100B4000A2F1010241FA03FC10EB0C00C3F12003F7
:100B500001FA03F100F0004302D5494260EB400086
:100B6000B0F5000F13D3B0F1807F06D340084FEAF1
:100B7000310102F10102FE2A51D2B1F1004F40EBE6
:100B8000C25008BF20F0010040EA0300704749004E
:100B900040EB000010F4000FA2F10102EDD1B0FA19
:100BA00080FCACF1080CB2EB0C0200FA0CF0AABF0E
:100BB00000EBC25052421843BCBFD04018437047AC
:100BC00092F0000F81F4000106BF80F400000132B2
:100BD000013BB5E74FEA41037FEA226C18BF7FEA89
:100BE000236C21D092EA030F04D092F0000F08BFCB
:100BF0000846704790EA010F1CBF0020704712F0B2
:100C00007F4F04D1400028BF40F00040704712F1F0
:100C100000723CBF00F50000704700F0004343F055
:100C2000FE4040F4000070477FEA226216BF08468B
:100C30007FEA23630146420206BF5FEA412390EA4E
:100C4000010F40F4800070474FF0000304E000BF44
:100C500010F0004348BF40425FEA000C08BF7047F5
:100C600043F0964301464FF000001CE050EA0102B9
:100C700008BF70474FF000030AE000BF50EA0102CE
:100C800008BF704711F0004302D5404261EB4101BB
:100C90005FEA010C02BF84460146002043F0B643E0
:100CA00008BFA3F18053A3F50003BCFA8CF2083A05
:100CB000A3EBC25310DB01FA02FC634400FA02FC0E
:100CC000C2F12002BCF1004F20FA02F243EB020015
:100CD00008BF20F00100704702F1200201FA02FC77
:100CE000C2F1200250EA4C0021FA02F243EB02006A
:100CF00008BF20EADC7070474FF0FF0C1CEAD052AE
:100D00001EBF1CEAD15392EA0C0F93EA0C0F6FD06E
:100D10001A4480EA010C400218BF5FEA41211ED04C
:100D20004FF0006343EA501043EA5111A0FB013138
:100D30000CF00040B1F5000F3EBF490041EAD3710D
:100D40005B0040EA010062F17F02FD2A1DD8B3F189
:100D5000004F40EBC25008BF20F00100704790F0F8
:100D6000000F0CF0004C08BF49024CEA502040EA4A
:100D700051207F3AC2BFD2F1FF0340EAC250704710
:100D800040F400004FF00003013A5DDC12F1190F4E
:100D9000DCBF00F000407047C2F10002410021FAC0
:100DA00002F1C2F1200200FA02FC5FEA310040F1D8
:100DB000000053EA4C0308BF20EADC70704792F051
:100DC000000F00F0004C02BF400010F4000F013A89
:100DD000F9D040EA0C0093F0000F01F0004C02BF84
:100DE000490011F4000F013BF9D041EA0C018FE7F3
:100DF0000CEAD15392EA0C0F18BF93EA0C0F0AD0F9
:100E000030F0004C18BF31F0004CD8D180EA01001E
:100E100000F00040704790F0000F17BF90F0004FB7
:100E2000084691F0000F91F0004F14D092EA0C0F99
:100E300001D142020FD193EA0C0F03D14B0218BF2C
:100E4000084608D180EA010000F0004040F0FE4072
:100E500040F40000704740F0FE4040F4400070470E
:100E60004FF0FF0C1CEAD0521EBF1CEAD15392EA8D
:100E70000C0F93EA0C0F69D0A2EB030280EA010C7D
:100E800049024FEA402037D04FF0805343EA111116
:100E900043EA10130CF000408B4238BF5B0042F174
:100EA0007D024FF4000C8B4224BF5B1A40EA0C0019
:100EB000B3EB510F24BFA3EB510340EA5C00B3EB4B
:100EC000910F24BFA3EB910340EA9C00B3EBD10F39
:100ED00024BFA3EBD10340EADC001B0118BF5FEA8B
:100EE0001C1CE0D1FD2A3FF650AF8B4240EBC250B4
:100EF00008BF20F0010070470CF0004C4CEA502075
:100F00007F32C2BFD2F1FF0340EAC250704740F4C3
:100F100000004FF00003013A37E792F0000F00F0B5
:100F2000004C02BF400010F4000F013AF9D040EA33
:100F30000C0093F0000F01F0004C02BF490011F4C7
:100F4000000F013BF9D041EA0C0195E70CEAD153BF
:100F500092EA0C0F08D142027FF47DAF93EA0C0FA6
:100F60007FF470AF084676E793EA0C0F04D14B028A
:100F70003FF44CAF08466EE730F0004C18BF31F03C
:100F8000004CCAD130F000427FF45CAF31F0004336
:100F90007FF43CAF5FE700BF034613F8012B002A44
:100FA000FBD1181A013870474FEA410212F50012BE
:100FB00015D211D56FF47873B3EB625212D94FEAA0
:100FC000C12343F0004343EA505311F0004F23FA8A
:100FD00002F018BF404270474FF00000704750EADF
:100FE000013005D111F0004008BF6FF0004070479C
:100FF0004FF00000704700BF10B504460E4B187844
:101000004FF47A73B3FBF0F30C4A1068B0FBF3F0C3
:1010100000F09CFA58B90F2C0BD8002221464FF053
:10102000FF3000F061FA044B5C60002010BD01202D
:1010300010BD012010BD00BF0000002008000020EE
:1010400008B5074A136843F010031360032000F04B
:1010500039FA0020FFF7D0FF01F09AF9002008BD0F
:1010600000200240034A1368034909780B441360C7
:10107000704700BF0C02002000000020014B1868E0
:10108000704700BF0C02002038B50446FFF7F6FF9A
:101090000546B4F1FF3F02D0044B1B781C44FFF718
:1010A000EDFF401B8442FAD838BD00BF000000208D
:1010B0000368D86C704700BF70B483B000230193FD
:1010C00090F82430012B00F08880012380F8243030
:1010D0004B68062B0ED80668756B03EB8303053B44
:1010E0001F249C4025EA04040A6802FA03F3234300
:1010F00073631EE00C2B0ED805682A6B03EB830389
:10110000233B1F249C4022EA04040A6802FA03F3EA
:1011100023432B630DE00568EA6A03EB8303413B3D
:101120001F249C4022EA04040A6802FA03F32343C2
:10113000EB620B68092B0ED90668F56803EB4303D5
:101140001E3B07249C4025EA04048A6802FA03F344
:101150002343F3600CE00668356903EB430307247F
:101160009C4025EA04048A6802FA03F323433361AE
:101170000B68103B012B26D803681A4A93421CD1F6
:101180009A6812F4000F20D19A6842F400029A6023
:101190000B68102B1BD1144B1B68144AA2FB0323B2
:1011A0009B0C03EB83035A00019202E0019B013B7D
:1011B0000193019B002BF9D10AE0836A43F02003DD
:1011C0008362012304E0002302E0002300E0002307
:1011D000002280F82420184600E0022003B070BCF2
:1011E000704700BF002401400800002083DE1B433D
:1011F00030B583B00023019303689A6812F0010FA1
:101200002FD19A6842F001029A60174B1B68174A67
:10121000A2FB03239B0C019302E0019B013B019382
:10122000019B002BF9D10446FFF728FF054611E08A
:10123000FFF724FF401B02280CD9A36A43F01003D8
:10124000A362E36A43F00103E362002384F82430DD
:10125000012007E023689B6813F0010FE8D000200D
:1012600000E0002003B030BD0800002083DE1B43F7
:1012700090F82430012B71D010B50446012380F87A
:101280002430FFF7B5FF0346002863D1A26A22F499
:10129000407222F0010242F48072A2622268304958
:1012A0008A4205D1A1F58061496811F4702F0ED1F1
:1012B000A16A21F48011A162516811F4806F1CD0E1
:1012C000A16A21F4405141F48051A16215E0A16A64
:1012D00041F48011A16223498A4203D001F5806163
:1012E0008A420AD11F49496811F4806F05D0A16A6A
:1012F00021F4405141F48051A162A16A11F4805F50
:1013000004D0E16A21F00601E16201E00021E1621E
:10131000002184F824106FF00201116022689168A6
:1013200001F46021B1F5602F0ED10D498A4205D13B
:10133000A1F58061496811F4702F05D1916841F4DD
:10134000A0019160184610BD916841F48011916030
:10135000184610BD002284F8242010BD02207047DA
:10136000002801400024014038B503689A6812F053
:10137000010F1ED004469A6822F001029A60FFF71E
:101380007DFE05460EE0FFF779FE401B022809D9D5
:10139000A36A43F01003A362E36A43F00103E3622C
:1013A000012038BD23689B6813F0010FEBD10020AA
:1013B00038BD002038BD00BF00287DD038B50446B8
:1013C000836A23B9C36280F8243001F003F8204611
:1013D000FFF7CAFFA36A13F0100F67D1002865D189
:1013E000A36A23F4885323F0020343F00203A362A9
:1013F0006268E3691343217B43EA4103A268B2F5C3
:10140000807F04D0012A05D14FF4807503E04FF4AA
:10141000807500E00025227D012A0FD131B9A26933
:10142000013A45EA423242F4006507E0A26A42F01E
:101430002002A262E26A42F00102E26221684A6886
:1014400022F469422A434A6021688D681B4A2A4077
:101450001A438A60A268B2F5807F01D0012A03D1C5
:101460002269013A110500E000212568EA6A22F4A8
:1014700070020A43EA6222689168114A0A40934264
:1014800008D10023E362A36A23F0030343F00103BE
:10149000A36238BDA36A23F0120343F01003A362D2
:1014A000E36A43F00103E362012038BDA36A43F01D
:1014B0001003A362012038BD01207047FDF7E1FF52
:1014C000FE0E1FFF074AD36823F4E0631B041B0CC6
:1014D000000200F4E060184340F0BF6040F40030C8
:1014E000D060704700ED00E030B4164BDB68C3F30A
:1014F0000223C3F10704042C28BF04241D1D062D5C
:1015000001D9DD1E00E00025012303FA04F4013CAB
:101510002140A940AB40013B1A400A43002808DBA8
:101520001201D2B200F1604000F5614080F8002362
:1015300005E000F00F001201D2B2034B1A5430BC88
:10154000704700BF00ED00E014ED00E00138B0F19D
:10155000807F0AD2064B5860F021064A82F8231099
:101560000020986007221A6070470120704700BF72
:1015700010E000E000ED00E0F0B583B00026344656
:10158000D4E00122A24013409A4240F0CE804D6840
:10159000122D2DD00BD8022D27D003D85DB3012DED
:1015A0001ED035E0032D30D0112D1BD030E0634F1D
:1015B000BD4220D008D8A7F58017BD421BD007F543
:1015C0008037BD4224D116E05D4FBD4213D007F5F0
:1015D0008037BD420FD0A7F58017BD4218D10AE071
:1015E000CE6815E0CE68043612E0CE6808360FE00B
:1015F000CE680C360CE08D684DB1012D02D1026130
:10160000082605E04261082602E0002600E00426E4
:10161000FF2B01D8864601E000F1040EFF2B01D814
:10162000A20002E0A4F108029200DEF800700F258B
:10163000954027EA050506FA02F22A43CEF8002073
:101640004A6812F0805F70D03E4A956945F0010506
:101650009561926902F001020192019AA708BD1CEE
:10166000394A52F8255004F0030292004FF00F0E51
:101670000EFA02FE25EA0E0E344DA8420DD005F5F5
:101680008065A8420BD005F58065A84209D005F514
:101690008065A84207D1032506E0002504E0012566
:1016A00002E0022500E0042505FA02F24EEA0202F9
:1016B0000237254D45F827204A6812F4803F05D0AF
:1016C00005F580652A681A432A6004E0204D2A68DF
:1016D00022EA03022A604A6812F4003F04D01C4D3B
:1016E0006A681A436A6004E0194D6A6822EA0302D4
:1016F0006A604A6812F4801F04D0154DAA681A4324
:10170000AA6004E0124DAA6822EA0302AA604A68AD
:1017100012F4001F04D00E4DEA681343EB6004E09E
:101720000B4DEA6822EA0303EB6001340B6833FADD
:1017300004F27FF426AF03B0F0BD00BF000021101B
:10174000000031100010024000000140000801407C
:10175000000401400AB1016170470904016170474A
:1017600082B0084B1B68084AA2FB03235B0A00FBFC
:1017700003F0019000BF019B5A1E0192002BF9D18A
:1017800002B0704708000020D34D6210002800F01E
:10179000EC8170B582B00446036813F0010F6BD082
:1017A000A84B5B6803F00C03042B0AD0A54B5B68C5
:1017B00003F00C03082B0DD1A24B5B6813F4803FA0
:1017C00008D0A04B1B6813F4003F55D06368002B72
:1017D00052D1CCE16368B3F5803F05D1994A1368D3
:1017E00043F48033136026E063B903F1804303F5CB
:1017F00004331A6822F480321A601A6822F48022B4
:101800001A6018E0B3F5A02F0CD103F18043A3F5C3
:101810003C331A6842F480221A601A6842F480321B
:101820001A6008E0874B1A6822F480321A601A683E
:1018300022F480221A6063687BB1FFF71FFC054623
:1018400005E0FFF71BFC401B642800F292817D4BF2
:101850001B6813F4003FF4D00EE0FFF70FFC0546C1
:1018600005E0FFF70BFC401B642800F28481754BF8
:101870001B6813F4003FF4D1236813F0020F50D01B
:10188000704B5B6813F00C0F0AD06E4B5B6803F073
:101890000C03082B16D16B4B5B6813F4803F11D1FE
:1018A000684B1B6813F0020F03D02369012B40F033
:1018B0006481644A136823F0F803616943EAC10351
:1018C00013602EE02369D3B101225F4B1A60FFF74A
:1018D000D5FB054605E0FFF7D1FB401B022800F2CF
:1018E0004E81584B1B6813F0020FF4D0554A136811
:1018F00023F0F803616943EAC103136011E0002299
:10190000514B1A60FFF7BAFB054605E0FFF7B6FB3F
:10191000401B022800F235814A4B1B6813F0020F6E
:10192000F4D1236813F0080F29D0A369ABB10122C9
:10193000464B1A60FFF7A2FB054605E0FFF79EFB4A
:10194000401B022800F21F813E4B5B6A13F0020F1E
:10195000F4D00120FFF704FF11E000223B4B1A6096
:10196000FFF78CFB054605E0FFF788FB401B0228CC
:1019700000F20B81334B5B6A13F0020FF4D1236842
:1019800013F0040F00F08B802E4BDB6913F0805FA7
:101990000BD12C4BDA6942F08052DA61DB6903F03B
:1019A00080530193019B012500E00025284B1B6813
:1019B00013F4807F13D1264A136843F480731360B5
:1019C000FFF75CFB064605E0FFF758FB801B642829
:1019D00000F2DD801E4B1B6813F4807FF4D0E368B7
:1019E000012B05D1174A136A43F00103136222E069
:1019F00063B903F1804303F504331A6A22F001024C
:101A00001A621A6A22F004021A6214E0052B09D144
:101A10000C4B1A6A42F004021A621A6A42F001027E
:101A20001A6208E0074B1A6A22F001021A621A6A67
:101A300022F004021A62E368D3B1FFF71FFB0646E7
:101A400010E000BF00100240000042428004424209
:101A500000700040FFF712FB801B41F28833984270
:101A600000F29780544B1B6A13F0020FF2D010E083
:101A7000FFF704FB064607E0FFF700FB801B41F27F
:101A80008833984200F287804B4B1B6A13F0020F99
:101A9000F2D125B1484AD36923F08053D361E36979
:101AA000002B7AD0444A526802F00C02082A4CD02B
:101AB000022B37D10022414B1A60FFF7DFFA0546AF
:101AC00004E0FFF7DBFA401B022868D83A4B1B689A
:101AD00013F0007FF5D1236AB3F5803F06D1364974
:101AE0004B6823F40032A36813434B6032484368C9
:101AF00023F47411236A626A13430B434360012287
:101B00002E4B1A60FFF7BAFA044604E0FFF7B6FA64
:101B1000001B022845D8284B1B6813F0007FF5D026
:101B2000002047E00022254B1A60FFF7A7FA044681
:101B300004E0FFF7A3FA001B022834D81E4B1B68F1
:101B400013F0007FF5D1002034E0012B2DD01A4B8B
:101B50005B6803F48031226A914228D103F4701348
:101B6000626A934225D0012024E0012070470120C1
:101B700020E003201EE003201CE001201AE00320E7
:101B800018E0032016E0032014E0032012E00320F5
:101B900010E003200EE003200CE000200AE0032008
:101BA00008E0032006E0032004E0012002E0012019
:101BB00000E0002002B070BD001002406000424210
:101BC00030B486B0164D02AC28686968AA68EB6824
:101BD0000FC42B8AADF80430124B5B6803F00C0283
:101BE000082A19D1C3F3834206A90A4412F8100C3B
:101BF00013F4803F0CD00B4B5B68C3F340430B44A2
:101C000013F8142C084B03FB00F0B0FBF2F004E0D7
:101C1000064B03FB00F000E0034806B030BC704701
:101C2000685300080010024000127A0000093D00CD
:101C3000002800F09D8070B50446544B1B6803F0EB
:101C400007038B420BD2514A136823F007030B435F
:101C50001360136803F00703994240F08B802368F8
:101C600013F0020F17D013F0040F04D0484A536842
:101C700043F4E0635360236813F0080F04D0444A30
:101C8000536843F4605353604148436823F0F002C3
:101C9000A368134343600D46236813F0010F2ED051
:101CA0006268012A05D13A4B1B6813F4003F0DD13D
:101CB00062E0022A05D1364B1B6813F0007F05D184
:101CC0005CE0334B1B6813F0020F59D030494B686E
:101CD00023F0030313434B60FFF7D0F9064606E0F9
:101CE000FFF7CCF9801B41F2883398424AD8284B41
:101CF0005B6803F00C036268B3EB820FF0D1234BF7
:101D00001B6803F007039D420AD2204A136823F0A0
:101D100007032B431360136803F007039D4233D17D
:101D2000236813F0040F06D019494B6823F4E062CE
:101D3000E36813434B60236813F0080F07D0144A7D
:101D4000536823F46053216943EAC1035360FFF7EA
:101D500037FF0F4B5B68C3F303130E4AD35CD840C5
:101D60000D4B18600D4B1868FFF746F9002070BD49
:101D700001207047012070BD012070BD012070BDA1
:101D8000012070BD032070BD012070BD0020024005
:101D9000001002409C5300080800002004000020AE
:101DA00070B582B00446036813F0010F5CD03E4B5F
:101DB000DB6913F0805F0BD13B4BDA6942F0805254
:101DC000DA61DB6903F080530193019B012600E097
:101DD0000026364B1B6813F4807F12D1334A1368F8
:101DE00043F480731360FFF749F9054604E0FFF7F9
:101DF00045F9401B64284FD82C4B1B6813F4807F97
:101E0000F5D0294B1B6A13F4407321D0626802F4A9
:101E1000407293421CD0244A136A23F44070244930
:101E200001250D6000250D60106213F0010F0FD029
:101E3000FFF724F9054606E0FFF720F9401B41F2C1
:101E4000883398422AD8184B1B6A13F0020FF3D03C
:101E500015490B6A23F44072636813430B621EB189
:101E6000CB6923F08053CB61236813F0020F06D0B7
:101E70000D494B6823F44042A36813434B60236829
:101E800013F0100F0CD008494B6823F48002E3686C
:101E900013434B60002004E0032002E0032000E035
:101EA000002002B070BD00BF001002400070004072
:101EB0004004424208B5012000F002F908BD00BF0D
:101EC00008B5022000F0FCF808BD00BF08B500F01E
:101ED000F7F808BD08B5062000F0F2F808BD00BF0D
:101EE00008B500F0EDF808BD08B5C02000F0E8F82E
:101EF00008BD00BF08B521B940F0800000F0E0F84F
:101F000008BD403060F07F00C0B200F0D9F808BDD5
:101F100008B5FFF7CFFF3820FFF7D8FF0C20FFF7F9
:101F2000DFFFFFF7D7FF08BD10B51446FFF7E2FF4C
:101F3000204600F0B9F810BD38B50D4600F0070096
:101F4000C00040F0400000F0BBF8002403E0285D32
:101F500000F0AAF80134072CF9DD38BDF0B589B0DE
:101F600000240494059406940794234B9A6942F044
:101F700020029A619A6902F020020192019A9A69FC
:101F800042F004029A619A6902F004020292029AF3
:101F90009A6942F008029A619B6903F0080303936F
:101FA000039B164D22460E212846FFF7D3FB144E05
:101FB0002246FF213046FFF7CDFB0E230493012379
:101FC000059306940227079704A92846FFF7D4FA39
:101FD000C02304930323059304A92846FFF7CCFAF2
:101FE000FF230493112305930694079704A9304611
:101FF000FFF7C2FA09B0F0BD00100240000801402E
:10200000000C014070B584B0002501950295039540
:102010000D4C0E4B23604FF48073A3600126267392
:1020200025754FF46023E361656026612046FFF764
:10203000C3F9072301930296039501A92046FFF7F0
:102040003BF804B070BD00BF100200200024014026
:1020500082B0019002E0019B013B0193019B002BA8
:10206000F9D102B0704700BF38B504460B4D0C4B98
:102070002B614FF4E150FFF7EBFF0A4BFF225A614F
:10208000E24344EA02441C614FF4E150FFF7E0FFF1
:102090006B6943F002036B6138BD00BF000801406B
:1020A00002000400000C014008B5044A136943F023
:1020B00008031361FFF7D8FF08BD00BF0008014007
:1020C00008B5044A536943F008035361FFF7CCFF96
:1020D00008BD00BF0008014070B506460D46104C13
:1020E0002046FFF7C5F82046FEF7E2FF2046FEF740
:1020F000DFFF80B2FEF7A8FD4FF06651FEF7FCFD52
:102100002946FEF7F9FD044629463046FEF7A8FEAB
:1021100001462046FEF7F0FD0249FEF7EDFD70BDD9
:10212000100200205C8F423E70B582B00546284CFC
:102130002046FFF79DF829464FF07E50FEF790FEAF
:102140000646012200210846FFF7EEFE2046FEF774
:10215000AFFF80B2FEF77CFD01461E48FEF780FE11
:10216000FEF768F900221C4BFEF704F800F022FA93
:1021700004460D463046FEF75DF922462B46FEF733
:10218000ADF90FA3D3E90023FDF7F6FF02460B4696
:1021900000201149FEF7CCFAFEF750FC019001989F
:1021A000FEF748F908A3D3E90023FDF7E3FFFEF7A4
:1021B00045FC0090009802B070BD00BFAFF30080F6
:1021C000000000E0E1796B3F66666666661271406A
:1021D0001002002000F07F450000F03F10B50C48D1
:1021E000FFF7A2FF0446202001F020F92046FEF769
:1021F00021F902460B46074801F000F9002211467A
:102200000720FFF791FE432001F010F910BD00BF39
:10221000CD9C6845B453000810B510491048FFF72D
:102220005BFF0446FFF760FE032240210020FFF71A
:102230007BFE202001F0FAF82046FEF7FBF802466C
:102240000B46084801F0DAF8074801F0D7F80222F7
:1022500040210920FFF768FE10BD00BF2DB24D40A0
:102260000000A041B4530008BC53000830B595B03D
:10227000282200210DEB020000F046FC002405940A
:102280000694079408940994019402940394049486
:1022900001220A924FF480330B930E92022511957E
:1022A00012934FF4E01313930AA8FFF76FFA0F236A
:1022B0000593069507944FF4806308930994294683
:1022C00005A8FFF7B5FC01954FF40043039301A85F
:1022D000FFF766FD15B030BD10B588B0FEF7B0FE53
:1022E000FFF7C4FFFFF73AFEFFF78CFE00F0B4F8EB
:1022F0001E48FEF7BDFFFFF70BFE1D4C06AB206826
:10230000616803C306A90020FFF716FE04AB22464E
:1023100052F8080F516803C304A90120FFF70CFE0F
:1023200002AB224652F8100F516803C302A90220E3
:10233000FFF702FE6B4654F8180F616803C3694645
:102340000320FFF7F9FD0B48FFF7EEFEFFF746FF0E
:1023500009490A48FFF7C0FEFFF75EFF4FF47A70A5
:10236000FEF792FEFFF7ACFDEDE700BF1002002084
:102370007C530008CD9C68452DB24D400000A04123
:1023800010B50446C0B2FFF78FFE204610BD00BF57
:1023900082B00E4B9A6942F001029A619A6902F08A
:1023A00001020092009ADA6942F08052DA61DB6938
:1023B00003F080530193019B054A536823F0E063C7
:1023C00043F00073536002B0704700BF001002403A
:1023D0000000014000B587B00023029303930493EB
:1023E00005930268104B9A421BD103F56C439A691E
:1023F00042F400729A619A6902F400720092009AA3
:102400009A6942F004029A619B6903F00403019304
:10241000019BC02302930323039302A90348FFF700
:10242000ABF807B05DF804FB002401400008014050
:10243000704700BFFEE700BFFEE700BFFEE700BF3A
:10244000FEE700BF704700BF704700BF704700BF86
:1024500008B5FEF707FE08BD10B50B4C2068002339
:1024600002221946406800F0F5FF2068002302228E
:102470001946806800F0EEFF20680023022219460A
:10248000C06800F0E7FF10BD70000020F8B50D46F1
:102490001746002405E06E1CAFF30080287001345D
:1024A0003546BC42F7DB3846F8BD00BF70B516466E
:1024B000002405E04D1C0878FFF762FF013429462F
:1024C000B442F7DB304670BD08B50B4B1B6813B93F
:1024D0000A4A094B1A60084B1A68131869468B425E
:1024E00006D900F0E5FA0C2303604FF0FF3008BD79
:1024F00001490B60104608BDFC0100204802002085
:102500004FF0FF30704700BF4FF400534B60002086
:10251000704700BF01207047002070470F4B1A68BA
:1025200042F001021A6059680D4A0A405A601A685E
:1025300022F0847222F480321A601A6822F4802217
:102540001A605A6822F4FE025A604FF41F029A6021
:102550004FF00062034B9A60704700BF00100240CA
:102560000000FFF800ED00E0002103E00B4B5B589A
:10257000435004310A480B4B42189A42F6D30A4A98
:1025800002E0002342F8043B084B9A42F9D3FFF7DC
:10259000C5FF00F093FAFFF79FFE704790560008C2
:1025A00000000020E0010020E001002044020020A3
:1025B000FEE700002DE9F0418AB004460D4600F028
:1025C0007BF8374B064693F900800F46B8F1FF3F82
:1025D0000DD022462B4620462946FEF719FA30B97F
:1025E0000022002320462946FEF708FA20B1304693
:1025F00039460AB0BDE8F0812A4B0890CDE9024582
:10260000CDE904450193B8F1000F19D1264F4FF0E1
:1026100060462046294600220023CDE90667FEF7E2
:10262000C5F9002834D002230093684600F038FA38
:10263000A8B1089BC3B9DDE906010AB0BDE8F08185
:102640001A4F00262046294600220023CDE90667BE
:10265000FEF7ACF968B1022398450093E5D100F08C
:1026600027FA22230360E4E700F022FA089B0360C4
:10267000E1E70123B8F1020F00930BD100F018FA43
:10268000212303600A4800F00DFACDE90601D0E7E6
:1026900001230093684600F003FA0028F2D1EDE729
:1026A0000C000020C0530008FFFFEFC70000F0FF40
:1026B000B8530008000000002DE9F04FB1F5801F6D
:1026C00085B006460F460B465ADA024621F0004412
:1026D000224300F0F7800029C0F279810022D64B16
:1026E000FDF7FCFE0B460F46D44906468B426FF0C1
:1026F000350249DCC3F3130505F5152404F66474AB
:1027000004F4801E8EF07F5181F440111B15A3F25A
:10271000FF3341EA05079C1830460022C84B394672
:1027200004EB1E54FDF726FDAB1CC3F31303022B71
:1027300082468B464FF000022FDC0023FEF736F96D
:10274000002800F0C880002C00F04A812046FDF7E8
:102750005FFEA5A3D3E9002306460F46FDF7BEFEA4
:10276000A3A3D3E9002304460D4630463946FDF7BE
:10277000B5FE02460B4620462946FDF7FDFC09E062
:10278000AE4900228B42B5DD32463B4630463946E3
:10279000FDF7F2FC05B0BDE8F08F4FF08043FDF788
:1027A000EBFC02460B4650465946FDF7C1FF064674
:1027B00020460F46FDF72CFE3246CDE900013B4690
:1027C00030463946CDE90267FDF788FE02460B46E2
:1027D00080468946FDF782FE87A3D3E9002306469B
:1027E0000F46FDF77BFE86A3D3E90023FDF7C4FC6B
:1027F00032463B46FDF772FE83A3D3E90023FDF783
:10280000BBFC32463B46FDF769FE81A3D3E90023BA
:10281000FDF7B2FC42464B46FDF760FE7EA3D3E9CE
:1028200000238046894630463946FDF757FE7CA393
:10283000D3E90023FDF7A0FC32463B46FDF74EFEF0
:1028400079A3D3E90023FDF797FC32463B46FDF719
:1028500045FE0B46024649464046FDF78DFCA5F570
:10286000C223C5F5D725A3F27A4351351D43002D68
:102870008046894656DD0022724B50465946FDF788
:102880002DFE52465B46FDF729FE06460F46002CFC
:1028900068D132463B4640464946FDF76DFCDDE9CE
:1028A0000223FDF71BFE02460B4630463946FDF774
:1028B00061FC02460B4650465946FDF75BFC05B0ED
:1028C000BDE8F08F0022002300205F49FDF730FFB4
:1028D00005B0BDE8F08F56A3D3E900235046594612
:1028E000FDF7FCFD02460B4600205649FDF742FC71
:1028F000524606460F465B4650465946FDF7EEFDEA
:1029000002460B4630463946FDF7E8FD06460F46BF
:10291000002C40F09B8002460B4650465946FDF77E
:1029200029FC37E7002C00F0A5802FA3D3E9002372
:10293000DDE90001FDF7D2FD42464B4604460D4657
:1029400050465946FDF716FCDDE90223FDF7C6FDAA
:1029500027A3D3E9002306460F46DDE90001FDF772
:10296000BDFD21E020A3D3E90023DDE90001FDF74F
:10297000B5FD32463B4604460D4640464946FDF706
:10298000FBFBDDE90223FDF7A9FD19A3D3E9002331
:1029900080468946DDE90001FDF7A0FD02460B46B1
:1029A00040464946FDF7E8FB02460B4630463946AD
:1029B000FDF7E0FB52465B46FDF7DCFB02460B46AB
:1029C00020462946FDF7D6FB05B0BDE8F08F02464C
:1029D0000B46FDF7CFFB00220023FDF7A9FED9E649
:1029E00000200021D6E600BF0000E0FE422EE63FB8
:1029F000763C7935EF39EA3D44523EDF12F1C23F71
:102A0000DE03CB966446C73F599322942449D23FB4
:102A1000935555555555E53F9FC678D0099AC33F04
:102A2000AF788E1DC571CC3F04FA97999999D93F1B
:102A3000555555555555D53F00005043FFFFEF7F85
:102A40000000F03F0000E03F000050C32046FDF7CB
:102A5000DFFC0FA3D3E9002380468946FDF73EFD46
:102A60000DA3D3E9002304460D4640464946FDF731
:102A700035FD99E702460B4650465946FDF77AFB6D
:102A8000DDE90223FDF72AFD13E700BFAFF3008065
:102A90000000E0FE422EE63F763C7935EF39EA3D14
:102AA0000020704700200149704700BF0000F87FF8
:102AB000014B1868704700BF700000200E4B70B5C6
:102AC0001E460E4C0025E41AA410A54204D056F868
:102AD000253098470135F8E702F03AFC084B094CDD
:102AE0001E46E41AA4100025A54204D056F825304D
:102AF00098470135F8E770BD8856000888560008E9
:102B0000885600088C56000803460244934202D0BF
:102B100003F8011BFAE770472DE9F04788B0149FCE
:102B2000002B1E461299B8BF03F1004327F020077F
:102B3000B6BF1E4600232D23462F1446109DDDF8F8
:102B40004CA00B7003D0452F03D1013501E00323C6
:102B500000E0022307AA049206AA03928DE8280443
:102B60002246334600F0ACFD472F804602D1119B30
:102B7000DB0728D5462F08EB050911D198F800305E
:102B8000302B0AD10022002320463146FDF70EFFEC
:102B900018B9C5F10105CAF80050DAF800309944B7
:102BA0000022002320463146FDF700FF08B93022FD
:102BB00002E0CDF81C9006E0079B994503D9591C0B
:102BC00007911A70F8E74046079B159AC8EB030374
:102BD000136008B0BDE8F087034673B50029B8BF9D
:102BE000494203F8022BB4BF2D222B22092942703F
:102BF0001ADD0DF1070216460A2591FBF5F405FBD7
:102C00001411092C01F1300102F8011D2146F4DCF8
:102C10003031541E02F8011CB4421A460AD214F88C
:102C2000012B03F8012BF7E71A463024214402F860
:102C3000024B5970101A02B070BD00002DE9F04F20
:102C400091B00C46DDF8688016461F46054601F037
:102C500049FC036818460993FEF79EF900230E937A
:102C6000D8F800300A90073323F0070303F1080275
:102C700094F81890D4F800B0C8F80020D3E90023E5
:102C8000C4E91223D4F84CA0D4F848802AF00043B9
:102C90000B934FF0FF32A74B40460B99FDF7B8FE60
:102CA000A0B94FF0FF32A34B40460B99FDF792FEBF
:102CB00060B90022002340465146FDF781FE10B165
:102CC0002D2384F843309C4B9C4A0AE042465346ED
:102CD00040465146FDF79CFE002800F09281984B3B
:102CE000984AB9F1470F8CBF904698460323236159
:102CF0002BF0040323604FF0000A3DE0B9F1670FA9
:102D000000F08A81B9F1470F00F0868123600193BA
:102D1000636800210DF13302059002920093424650
:102D200053460691CDF81090CDF80CE02846FFF7F9
:102D3000F3FE09F0DF03472B804600F08481B9F1F0
:102D4000650F0D9900F28D8101394A4604F150005A
:102D50000D91FFF741FF0E9A82468318012A2361E5
:102D600000F37C812268D10700F178819DF833302F
:102D700013B12D2384F84330009733460FAA214620
:102D8000284600F09FF9013002D14FF0FF3096E164
:102D900023685A0501D4236965E0B9F1650F40F253
:102DA000D580D4E9120100220023FDF7FFFD78B39E
:102DB0000123654A31462846B8470130E5D00E9BCD
:102DC0000D9A9A420BDB2368D80708D423689B0727
:102DD00040F111814FF0000804F1190906E10A9B46
:102DE000099A31462846B8470130CED04FF0000846
:102DF00004F11A090E9B013B9845E7DA01234A4684
:102E000031462846B8470130BFD008F10108F1E744
:102E10000D9B002B29DC01234B4A31462846B8473D
:102E20000130B2D00D9B23B90E9B13B92368D9078B
:102E3000CCD50A9B099A31462846B8470130A4D020
:102E40004FF0000904F11A0A0D9B5B42994509DA1B
:102E50000123524631462846B847013095D009F142
:102E60000109F1E70E9B4246A7E00E9AA36D9A4234
:102E7000A8BF1A46002A914606DC4FF0000A29EA4C
:102E8000E97904F11A0B11E013463146424628460F
:102E9000B8470130F1D178E701235A463146284638
:102EA000B84701303FF471AF0AF1010AA36DC9EBD5
:102EB00003029245F0DB08EB03090D9A0E9B9A4240
:102EC0000FDB2368DA070CD40E9B0D9A9844C9EBEC
:102ED00008089B1A9845A8BF9846B8F1000F08DC6F
:102EE0000FE00A9B099A31462846B8470130EBD1DA
:102EF0004BE743464A4631462846B84701303FF43F
:102F000044AF4FF0000928EAE87804F11A0A09E012
:102F10000123524631462846B84701303FF435AFC9
:102F200009F101090D9A0E9B9B1AC8EB0303994501
:102F3000EEDB4BE7FFFFEF7FC8530008CC530008E0
:102F4000D0530008D4530008D85300080E9A012A21
:102F500001DCDB0738D50123424631462846B84715
:102F600001303FF412AF0A9B099A31462846B84710
:102F700001303FF40AAFD4E9120100220023FDF72B
:102F800015FD20B14FF0000804F11A090EE00E9B68
:102F900008F10102013B19E001234A463146284667
:102FA000B84701303FF4F1AE08F101080E9B013B38
:102FB0009845F1DB534604F1500231462846B847A4
:102FC00001307FF403AFE0E6424601233146284654
:102FD000B8470130EED1D8E601234A4631462846AB
:102FE000B84701303FF4D1AE08F10108E3680F9A09
:102FF0009B1A9845F0DBE0680F9B9842B8BF1846D3
:103000005DE062680EA8531C0DF1340E4BF4806332
:103010007FF474AE062201E012B90122626075E607
:10302000002106910DF133018DE80C00236005901D
:103030004246CDF81090CDF80CE002915346284658
:10304000FFF76AFD80460D9BD81C02DB6268934245
:103050001DDDA9F102095FFA89F970E601332361E8
:1030600084E6B9F1660F14D10029636807DD216198
:1030700013B92268D2071DD501330B4419E013B9E7
:103080002268D00701D5023313E0012311E04FF08D
:1030900067090D9B0E9A934205DB22682361D107D5
:1030A00008D5013305E0002BD4BFC3F1020301238F
:1030B000134423610D9B4FF0000AA36556E611B03F
:1030C000BDE8F08F2DE9F04791461F460A698B68ED
:1030D00006469342B8BF1346C9F8003091F8432022
:1030E0000C46DDF8208012B10133C9F800302368A6
:1030F000990642BFD9F800300233C9F8003025687C
:1031000015F0060510D104F1190A07E00123524613
:1031100039463046C04701301AD00135E368D9F846
:1031200000209B1A9D42F1DB94F843302268003363
:1031300018BF012392060FD5E118302081F8430013
:103140005A1C94F845102244023382F8431003E0DD
:103150004FF0FF30BDE8F08704F1430239463046B6
:10316000C0470130F4D02268D9F80050E36802F07B
:103170000602042A08BF5D1B2269A3680CBF25EA6A
:10318000E57500259342C4BF9B1AED184FF0000966
:103190001A344D4509D00123224639463046C047EE
:1031A0000130D5D009F10109F3E70020BDE8F0872F
:1031B0002DE9F04317460A7E85B06E2A98460646EA
:1031C0000C460C9B01F1430E00F0AE8011D8632A2F
:1031D00022D009D8002A00F0BB80582A40F0CA80CB
:1031E00081F84520834955E0642A1ED0692A1CD005
:1031F000C0E0732A00F0B08009D86F2A2ED0702A60
:1032000040F0B8800A6842F020020A603EE0752A69
:1032100024D0782A3AD0ADE01A6801F14205111D98
:103220001960136884F84230A8E021681A6811F028
:10323000800F02D0111D196008E011F0400F02F15B
:103240000401196002D0B2F9003000E01368002BCD
:103250003CDA2D225B4284F8432037E021681A686B
:1032600011F0800F02D0111D196007E011F0400F1E
:1032700002F10401196001D0138800E01368227E76
:103280005C496F2A14BF0A2208221BE078225A499F
:1032900084F845202268186812F0800F00F10405B8
:1032A0001D6003D1550601D5038800E00368D007EF
:1032B00044BF42F0200222601BB9226822F02002A3
:1032C00022601022002084F8430001E049490A22CC
:1032D0006568002DA56008DB206820F004002060F0
:1032E0002BB9002D7DD175460CE0002B79D07546A9
:1032F000B3FBF2F002FB1033CB5C05F8013D034653
:103300000028F5D1082A0BD12368DA0708D52369EC
:1033100062689A42DEBF302305F8013C05F1FF35B3
:10332000C5EB0E0323612EE008681A6810F0800FC9
:10333000496903D0101D1860136808E010F0400FB1
:1033400002F104001860136801D0198000E01960D0
:1033500000232361754616E01A68111D196015686F
:1033600000216268284601F033F908B1401B606013
:10337000636804E004F1420584F8422001232361DC
:10338000002384F84330CDF800803B4603AA214651
:103390003046FFF797FE013002D14FF0FF3026E0B4
:1033A00023692A4639463046C0470130F5D02368A4
:1033B0009B0710D5002504F1190907E001234A46AF
:1033C00039463046C0470130E7D00135E368039AFB
:1033D0009B1A9D42F2DBE068039B9842B8BF1846F7
:1033E00005E00B7804F1420584F842308AE705B025
:1033F000BDE8F083DA530008EB5300080FB40A4B22
:1034000013B51C6824B1A36913B9204600F0E0FF8E
:1034100005AB049AA1682046019301F0A7FC02B015
:10342000BDE8104004B070477000002038B5084B6C
:1034300005461C6824B1A36913B9204600F0C8FFF3
:10344000A26829462046BDE8384001F0ABBD00BF68
:10345000700000202DE9F7431D464F4B04461E68BF
:103460000F46904626B1B36913B9304600F0B0FF5D
:103470004A4B9C4201D1746808E0494B9C4201D1FF
:10348000B46803E0474B9C4208BFF468B8F1020FF0
:1034900004D0B8F1010F79D8002D77DB21463046F2
:1034A00000F02CFF616B41B104F14403994202D05A
:1034B000304601F089FB002363630023A36163604E
:1034C000A3891B0603D52169304601F07DFBA38942
:1034D000B8F1020F23F44A6323F00303A3811ED043
:1034E00001AB6A462146304601F00AF8A389184329
:1034F000A0810DB9009D00E02FBB284601F060F8C7
:103500000746D0B9DDF80090A94502D14FF0FF3051
:1035100006E0484601F054F8074678B9F6E700207F
:10352000A38943F00203A3810023A36004F14703AE
:1035300023602361012363612AE0A9464D46A389E4
:1035400043F08003A381B36913B9304600F040FF14
:10355000B8F1010F08BFA389276004BF43F001033E
:10356000A381A389276103F0080080B2656158B187
:1035700013F001034FF000001DBF6D42A060A56174
:10358000A56008BF184603E0A06001E04FF0FF30DF
:1035900003B0BDE8F08300BF700000200C540008A9
:1035A0002C5400084C5400082DE9F74F03690C69AE
:1035B00080469C427FDC013C01F114074FEA840EF7
:1035C00000F1140606EB0E0357F82450019356F849
:1035D00024300135B3FBF5F507EB0E09C5B34FF009
:1035E000000A3846B446D34650F8043B9AB205FB6D
:1035F00002A21B0C4FEA124A05FB03A392B2C2EBD4
:103600000B0BBCF800204FEA134A5A441FFA83FB05
:10361000DCF800308145CBEB134303EB224392B23D
:1036200042EA03424FEA234B4CF8042BDCD256F813
:103630000E306BB9019B043B9E421A4602D3C8F878
:10364000104005E01268043B002AF8D1013CF3E782
:10365000404601F0E2F900282BDB304601354FF0FF
:10366000000E57F8042B036891B2C1EB0E0E120C3A
:1036700099B27144C2EB134303EB214389B24FEA81
:10368000234EB94541EA034340F8043BE9D256F8DA
:10369000242006EB840362B9043B9E421A4602D3FF
:1036A000C8F8104005E01268043B002AF8D1013C3C
:1036B000F3E7284600E0002003B0BDE8F08F0000EB
:1036C0002DE9F04F456A95B08246219CCDE9022351
:1036D00045B9102000F074FFCAF8240045608560E9
:1036E0000560C560DAF82430196859B15A680123B9
:1036F00093404A608B60504600F0B8FFDAF82430FF
:1037000000221A60039BA04A002BBDBF0123236047
:10371000039B0023BCBF23F000430393DDF80C8020
:10372000A8BF236028F000431B0D1B0593421DD149
:1037300042F20F73209A1360029B43B9934A944B51
:10374000C8F31300002814BF1846104600E0904844
:10375000229B002B00F04685C37813B100F10803CB
:1037600000E0C31C229A136000F03CBDDDE9024575
:103770000022002320462946FDF718F9074658B1D4
:10378000209A01231360229B002B00F01E858148A4
:103790001860013800F026BD12AB019313AB009303
:1037A00022462B46504601F0B3F9C8F30A5604905E
:1037B00056B1C5F3130343F07F51204641F4401145
:1037C000A6F2FF3611971DE0139B129E1E4406F2CF
:1037D0003243202B0ADD029A06F21240C3F1400365
:1037E00022FA00F008FA03F3184304E0C3F12000C2
:1037F000029B03FA00F0FCF7FBFD0123A1F1F87135
:10380000013E11930022644BFCF7B4FC58A3D3E9AA
:103810000023FCF763FE58A3D3E90023FCF7ACFCBC
:10382000044630460D46FCF7F3FD55A3D3E90023CB
:10383000FCF754FE02460B4620462946FCF79CFC4A
:1038400004460D46FDF7B0FB0022834600232046C8
:103850002946FDF7B5F858B15846FCF7D9FD0246A0
:103860000B4620462946FDF7A1F808B90BF1FF3BAE
:10387000BBF1160F0DD8DDE90223484901EBCB015E
:10388000D1E90001FDF7BAF830B10BF1FF3B00239D
:1038900000E00123109300E01090129B9E1B731E0A
:1038A000079343BFC3F10008002307934FF00008BC
:1038B000BBF1000F06DB079BCDF82CB05B440793F0
:1038C000002705E00023CBEB0808CBF100070B93A2
:1038D0001E9B092B28D8052BC4BF043B1E931E9B9F
:1038E000C8BF0025A3F10203D8BF0125032B20D8B0
:1038F000DFE803F0060E0204012302E0012308E0E2
:1039000000230A931F9B002B1DDD9946059321E0A0
:1039100000230A931F9B0BEB030909F10103012B01
:103920000593B8BF012315E0012500231E930A95D6
:1039300001E001230A934FF0FF390022CDF81490E3
:1039400012231F9206E04FF001094B46CDF8149068
:10395000CDF87C90DAF8244000226260042101F165
:1039600014029A421CD86268490001326260F6E78C
:1039700061436F63A787D23FB3C8608B288AC63F75
:10398000FB799F501344D33F0000F07FFC530008A5
:1039900005540008D95300080000F83F705400088F
:1039A0006168504600F02DFEDAF8243020601B6874
:1039B0000693059B0E2B00F25B81002D00F05881D1
:1039C000DDE90234BBF1000FCDE90E3430DD9F4A52
:1039D0000BF00F034FEA2B1502EBC303E80618CBDD
:1039E000CDE908340CD5DDE90E01994B05F00F0542
:1039F000D3E90823FCF79CFE0324CDE9020100E093
:103A00000224934E6DB1E90708D5DDE90801D6E936
:103A10000023FCF763FDCDE9080101346D10083681
:103A2000F0E7DDE90823DDE90201FCF781FE20E093
:103A3000CBF1000505B3DDE90E01844B05F00F0263
:103A400003EBC203D3E90023FCF748FDCDE90201F3
:103A50007F4E2D110023022455B1EA0705D5D6E982
:103A60000023FCF73BFD013401236D100836F3E71A
:103A70001BB1CDE9020100E00224109BE3B1DDE9B6
:103A800002560022734B28463146FCF799FF98B145
:103A9000059B8BB1B9F1000F40F3E6800BF1FF33CA
:103AA0000893314600226C4B2846FCF717FD013481
:103AB000CDE902014E4602E0059ECDF820B0204639
:103AC000FCF7A6FCDDE90223FCF708FD634B0022AE
:103AD000FCF752FBA1F1507304460C931D46D6B976
:103AE000DDE9020100225E4BFCF744FB22460C9B01
:103AF000CDE90201FCF782FF002840F03F820C99DB
:103B0000224601F10043DDE90201FCF759FF0028DC
:103B100040F02B82A8E00A9A4C4B711E002A49D033
:103B200003EBC103D3E9002300204E49FCF700FE5C
:103B300022462B46FCF71EFBCDE90C01069CDDE975
:103B40000201FDF731FA0546FCF762FC02460B461E
:103B5000DDE90201FCF70EFBDDE90C23303504F84A
:103B6000015BCDE90201FCF72BFF002840F01D832B
:103B7000DDE9022300203749FCF7FCFADDE90C23DC
:103B8000FCF71EFF002840F0D180069BE31AB342E9
:103B90006ADADDE90C0100222F4BFCF79FFC0022C2
:103BA000CDE90C01DDE902012B4BFCF797FCCDE9D7
:103BB0000201C4E703EBC1012246D1E900012B4613
:103BC000FCF78CFC069BCDE90C011D469C19DDE938
:103BD0000201FDF7E9F90646FCF71AFC02460B461E
:103BE000DDE90201FCF7C6FA303605F8016BAC429C
:103BF000CDE902014FF0000222D11A4BDDE90C01A0
:103C0000FCF7BAFA02460B46DDE90201FCF7F6FEC4
:103C1000002840F08B80DDE90C2300201149FCF7DF
:103C2000A9FA02460B46DDE90201FCF7C9FED8B14C
:103C300014F8013C621E302B40F0B7821446F7E7BF
:103C4000054BFCF74BFCCDE90201C0E770540008BE
:103C5000385500080000F03F0000244000001C40E0
:103C6000000014400000E03FDDE90E34CDE90234ED
:103C7000139B002B7CDBBBF10E0F79DCAB4B03EB12
:103C8000CB03D3E900671F9B002B14DA059B002BA5
:103C900011DC40F06C810022A54B30463946FCF720
:103CA0001DFCDDE90223FCF79FFE059D2E46002842
:103CB00040F05F8165E1069CDDE9028932463B46C2
:103CC00040464946FCF734FDFDF76EF90546FCF722
:103CD0009FFB32463B46FCF701FC0B460246494639
:103CE0004046FCF747FA05F1300E069B04F801EB5D
:103CF000C3EB040E059B73452DD102460B46FCF722
:103D00003BFA8046894602460B4630463946FCF768
:103D100057FE78B942464B4630463946FCF746FED8
:103D2000002800F04482EB0704D440E2DDF820B024
:103D300000E01C4614F8012C631E392A07D1069AAC
:103D40009A42F6D1069930220BF1010B0A701A78CB
:103D500001321A702BE20022764BFCF7BFFB0022E7
:103D6000002380468946FCF721FE0028A6D01EE2EB
:103D70000A9A002A2BD01E9A012A0ADC119A12B143
:103D800003F2334302E0129BC3F136033D4644463F
:103D900013E0059B5D1EAF42BFBF0B9BEA1B9B1848
:103DA0000B93059BB6BF2F467D1B0025002BA7BF9D
:103DB0004446059BC3EB08040023079A01211A44DB
:103DC00050469844079200F0F0FC064602E03D465B
:103DD00044460A9E5CB1079B002B08DDA342A8BFA6
:103DE0002346079AC3EB0808E41AD31A0793002F57
:103DF0001DDD0A9BABB18DB131462A46504600F01D
:103E00006DFD049A01460646504600F0D7FC049921
:103E10000890504600F02AFC089B04937A1B06D0B9
:103E200000E03A460499504600F058FD0490012104
:103E3000504600F0BAFC0B9B05465BB31A460146A0
:103E4000504600F04BFD1E9B0546012B18DC029BE3
:103E500083B9039BC3F3130373B9039B23F0004798
:103E60003F0D3F054FB1079B08F101080133079350
:103E7000012702E0002700E0029F0B9B73B100E0E6
:103E800000272B6905EB8303186900F041FCC0F1A2
:103E9000200004E01E9B012BD9DD0B9F0120079B16
:103EA000184410F01F0008D0C0F12003042B02DDDD
:103EB000C0F11C0002E006D018461C30079B80446D
:103EC000034404440793B8F1000F05DD424604990A
:103ED000504600F051FD0490079B002B05DD29465C
:103EE0001A46504600F048FD0546109B23B329466C
:103EF000049800F092FD00281EDA00230A2204999B
:103F0000504600F0CAFB0A9B0BF1FF3B0490002BCC
:103F100000F05F81314600230A22504600F0BDFBCD
:103F2000B9F1000F06463FDC3BE000BF70540008CB
:103F30000000144000002440059B002B2BDC1E9B3E
:103F4000022B28DDDDF81490B9F1000F11D12946BC
:103F50004B460522504600F0A0FB0146054604985A
:103F600000F05BFD00280CDC03E0354600E0002596
:103F70002E461F9B069C6FEA030B09E03546DDF8D1
:103F800020B0069B069A5C1C312313700BF1010BC9
:103F900005960026F7E00A9BDDF8149023B9069CED
:103FA000B2E01E9B022BCFDC002C05DD3146224601
:103FB000504600F0E1FC06469FB17168504600F0A3
:103FC00020FB0446326906F10C01023292000C30EB
:103FD00000F00CFB01222146504600F0CDFC05907C
:103FE00000E00596029B069F03F001030793294614
:103FF0000498FFF7D9FA3146044600F130080498D6
:1040000000F00BFD059A02902946504600F021FD74
:10401000C36802463BB901460A90049800F0FDFCD3
:104020000A9A034600E00123114650460A9300F025
:104030001DFB0A9B53B91E9A42B9079A32B9B8F1CF
:10404000390F2AD0029B002B1CDC1DE0029A002AAB
:1040500004DB1BD11E9ACAB9079ABAB9002B13DD2B
:1040600001220499504600F087FC2946049000F094
:10407000D4FC002803DC07D118F0010F04D0B8F1FC
:10408000390F0AD004F131087C1C0CE0002B07F139
:1040900001040BDDB8F1390F03D139233B7001372F
:1040A00056E008F1010887F800806CE0069B27467F
:1040B000E31A4B4504F8018C3BD000230A220499F3
:1040C000504600F0EAFA059B04909E424FF00A0227
:1040D0004FF000033146504604D100F0DEFA0646A8
:1040E000059084E700F0D9FA002306460A220599D4
:1040F000504600F0D2FA059079E700230A2204998D
:10410000504600F0CAFA049029460498FFF74CFA8A
:10411000069B00F1300804F8018BE31A4B45ECDBF9
:10412000069B0596B9F1010FACBF4B4401331F4606
:10413000002601220499504600F01EFC29460490F6
:1041400000F06BFC002803DC15D118F0010F12D031
:104150003C4614F8013C621E392B09D1069B934260
:1041600004D10BF1010B3123069A02E01446F0E76B
:104170000133137007E03C4614F8013C621E302BFB
:1041800001D11446F8E72946504600F06FFA059B26
:104190006BB12EB19E4203D03146504600F066FA14
:1041A0000599504600F062FA01E0DDF820B004996C
:1041B000504600F05BFA0023209A23700BF10103B4
:1041C0001360229B1BB11C6001E008480AE00698BE
:1041D00008E0B9F1000F3FF7E2AE1E9B022B7FF71C
:1041E000DEAEB1E615B0BDE8F08F00BFD8530008D1
:1041F0008A892DE9F041054610070C4659D44B68D1
:10420000002B02DC0B6C002B17DDE66AAEB102F46A
:104210008052002392B22F682B600AB1606D15E0C6
:10422000216A01232846B047411C0FD12B686BB18E
:104230001D2B01D0162B03D12F600020BDE8F0818B
:10424000A38943F04003A381BDE8F081A3895A0705
:1042500005D56368C01A636B0BB1236CC01A0023C9
:104260000246E66A216A2846B047431CA38906D164
:1042700029681D2939D8204ACA40D60735D50022D9
:1042800062602269D904226004D5421C01D12B68E6
:1042900003B96065616B2F600029CED004F144033F
:1042A000994202D0284600F08FFC00206063BDE8F0
:1042B000F0810F69002FC0D093070E680CBF4B69C7
:1042C0000023C7EB06080F608B6002E00744C0EBD9
:1042D0000808B8F1000FB0DD43463A46216A284687
:1042E000A66AB0470028F1DCA38943F04003A3810C
:1042F0004FF0FF30BDE8F0810100402038B50B6978
:1043000005460C46DBB118B183690BB900F060F8C3
:104310000C4B9C4201D16C6808E00B4B9C4201D1D4
:10432000AC6803E0094B9C4208BFEC68B4F90C3060
:104330002BB121462846BDE83840FFF759BF002081
:1043400038BD00BF0C5400082C5400084C54000821
:10435000014900F0A9B800BFFD42000810B50446AD
:10436000002303604360836081814366C2810361EF
:1043700043618361194608225C30FEF7C5FB054B9B
:1043800024626362044BA362044BE362044B236325
:1043900010BD00BF31500008535000088B5000087A
:1043A000AF50000870B568234D1E5D430E4605F101
:1043B000740100F055FC044640B1002180E8420041
:1043C0000C30A06005F16802FEF79EFB204670BD30
:1043D000836910B5044633BB8364C3640365124B21
:1043E000124A1B688262984204BF0123836100F075
:1043F0001FF86060204600F01BF8A060204600F027
:1044000017F80022E06004216068FFF7A7FF01228F
:104410000921A068FFF7A2FF02221221E068FFF73E
:104420009DFF0123A36110BDC45300085143000840
:10443000F8B51C4B07461E68B36913B93046FFF741
:10444000C7FF4836B4687368013B04D4B4F90C5014
:104450007DB16834F8E733680BB13668F2E70421C0
:104460003846FFF79FFF30600028F6D10C233B60F1
:10447000F8BD4FF6FF73E3810123A38165662560D4
:10448000A560656025616561A5610822294604F182
:104490005C00FEF739FB6563A563A564E56420460F
:1044A000F8BD00BFC45300082DE9F8438046894693
:1044B00000F14804002694B1A5686768013F0CD458
:1044C000AB89012B07D9B5F90E30013303D029464A
:1044D0004046C84706436835F0E72468EBE73046B6
:1044E000BDE8F883044B1B68186A044B002808BF1A
:1044F0001846F030704700BF7000002074000020A4
:1045000070B50E46B1F90E1090B0002914461D4644
:1045100006DA00232B60B3891A060ED540230EE07D
:1045200001AA00F0ADFE0028F3DB029A02F470420B
:10453000A2F500535A425A412A604FF4806300208A
:10454000236010B070BD00008B8973B59E070546CF
:104550000C4610D401AB6A46FFF7D2FF009906461D
:10456000284600F07DFB68B9B4F90C309A0522D4D6
:1045700043F00203A38104F1470323602361012375
:10458000636118E00D4BAB62A389206043F08003A8
:10459000A381009B20616361019B4BB1B4F90E10B4
:1045A000284600F07FFE18B1A38943F00103A381E0
:1045B000A0893043A08102B070BD00BF5143000804
:1045C000024B0146186800F04BBB00BF7000002092
:1045D00010B5C9B202449042034605D01C780130A0
:1045E0008C42F8D1184610BD002010BD10B5431EF6
:1045F0000A44914204D011F8014B03F8014FF8E747
:1046000010BD70B5456A04460E463DB91020FFF74F
:10461000D7FF6062456085600560C560656AEB68CC
:1046200043B1636ADB6853F8260078B1026843F847
:10463000262017E021220421204600F0B7FA636A01
:10464000E860DB68002BECD1002070BD012101FA8D
:1046500006F56A1D9200204600F0A8FA0028F3D063
:104660004660856000230361C36070BD70B5446A15
:1046700006460D463CB91020FFF7A2FF7062446069
:1046800084600460C4603DB1736A6A68DB6853F893
:104690002210296043F8225070BD2DE9F0410646F2
:1046A0000C460D691F4601F1140E0023DEF80000D0
:1046B000013381B202FB0171000C0F0C02FB007090
:1046C00089B201EB00419D424FEA10474EF8041BAE
:1046D000ECDCD7B1A3689D4212DB61683046013142
:1046E000FFF78FFF8046226904F10C01023292002D
:1046F0000C30FFF77BFF21463046FFF7B7FF4446FB
:1047000004EB850301355F6125612046BDE8F0813A
:10471000030C1B0413B90004102300E0002310F065
:104720007F4F04BF0002083310F0704F04BF000138
:10473000043310F0404F04BF80000233002803DB35
:10474000420003D5581C7047184670472020704718
:10475000036813F007020BD0D90722D49A074BBF86
:104760005B089B08036003604CBF01200220704778
:1047700099B209B91B0C102213F0FF0F04BF1B0ADA
:104780000832190704BF1B090432990704BF9B08AC
:104790000232D90702D45B0805D00132036010460B
:1047A0007047002070472020704710B50C4601214B
:1047B000FFF727FF01224461026110BD2DE9F74F89
:1047C00014460A69236988469A42BEBF0B46A04632
:1047D0001C46D8F81070D4F81090D8F80830D8F8E3
:1047E000041007EB09069E42C8BF0131FFF709FF1D
:1047F00000F114052B4605EB860C0022634502D21E
:1048000043F8042BFAE704F1140208F1140102EB57
:10481000890301EB87070093009B0192934257D9CC
:10482000B2F800B0BBF1000F23D08946AE464FF07E
:10483000000859F8044BBEF800A0A3B20BFB03A379
:104840004FEA144ADEF8004043444FEA14480BFB99
:104850000A84F24604EB13449BB243EA04434F45F7
:104860004FEA14484AF8043B01D9D646E1E7CEF8AE
:104870000480019B0432B3F802A0BAF1000F21D0EA
:104880002C4689462B684FF00008B9F800E0B4F8D0
:1048900002B09BB20AFB0EBEA346F04443EA0843B3
:1048A0004BF8043B59F8043BB4F804E01B0C0AFB3A
:1048B00003E34F4503EB18434FEA134801D95C4625
:1048C000E3E763600435A7E75CF8043D13B9013EF4
:1048D000002EF9DC066103B0BDE8F08F2DE9F84346
:1048E000154612F0030206460F4607D0214C013A46
:1048F000002354F82220FFF7D0FE0746AD1036D033
:10490000746A3CB91020FFF75BFE706244608460FB
:104910000460C460D6F82480D8F808404CB940F24E
:1049200071213046FFF741FF04460023C8F8080014
:1049300003604FF00008EB070AD53946224630469F
:10494000FFF73CFF814639463046FFF78FFE4F4662
:104950006D100CD0206808B10446ECE722462146D1
:104960003046FFF72BFF2060C0F80080F4E73846A0
:10497000BDE8F883605500082DE9F0470C4607466E
:10498000914626694FEA621A56444968A368751C25
:10499000AB4202DA01315B00FAE73846FFF731FE3D
:1049A000002380461A4600F11401534503DA41F80A
:1049B00023200133F9E72AEAEA73206901EB830334
:1049C00019F01F0904F1140101EB800E14D0C9F194
:1049D000200C002208689A4600FA09F0024343F8C6
:1049E000042B51F8042B8E4522FA0CF2F2D8CAF8A7
:1049F000042042B1B51C06E0043B51F8042B8E455F
:104A000043F8042FF9D8013D3846C8F81050214624
:104A1000FFF72CFE4046BDE8F08703690A6910B530
:104A20009B1A11D192001430143183180A4453F8A0
:104A3000044D52F8041D8C4202D007D3012010BD52
:104A40009842F4D3002010BD184610BD4FF0FF303F
:104A500010BD2DE9F8430C46074611462046154681
:104A6000FFF7DBFF061E08D131463846FFF7C9FDC8
:104A7000012303614661BDE8F883BCBF23462C4691
:104A800038466168BABF1D4601260026FFF7B9FD0A
:104A90002B69C660266905F1140904F1140101EBC4
:104AA000860709EB830800F114054FF0000C51F85C
:104AB000042B59F8044B93B29C44A3B2240CC3EBCF
:104AC0000C03C4EB124202EB23429BB24FEA224C8E
:104AD000C84543EA02428E4645F8042BE7D8BE4556
:104AE0000ED25EF8041B8AB26244131403EB114326
:104AF00092B242EA03424FEA234C45F8042BEEE718
:104B000055F8043D0BB9013EFAE70661BDE8F883AC
:104B10002DE9F3411C4601219046089E099DFFF7AF
:104B200070FDC4F31302C4F30A5407460CB142F4F7
:104B300080120192B8F1000F19D002A840F8088D38
:104B4000FFF706FE009B48B1019AC0F1200102FA6E
:104B500001F10B43C2407B61019200E07B61019B4C
:104B6000002B14BF02210121BB61396107E001A8BC
:104B7000FFF7EEFD019B01217B613961203034B1EB
:104B8000A4F2334404443460C0F1350009E0A0F2DB
:104B9000324007EB810330601869FFF7B9FDC0EBC5
:104BA00041102860384602B0BDE8F08138B502FBFC
:104BB00001F4214600F054F8054618B122460021C0
:104BC000FDF7A2FF284638BD38B50546002944D078
:104BD00051F8043C0C1F002BB8BFE41800F096FB02
:104BE0001E4A1368114613B96360146030E0A34293
:104BF0000DD92268A018834201BF18685B6812189B
:104C0000226063600C6023E0A24203D813465A6816
:104C1000002AF9D118681918A1420BD12168014462
:104C200058188242196013D1106852680144196003
:104C30005A600DE002D90C232B6009E0216860184E
:104C4000824201BF106852680918216062605C608E
:104C50002846BDE8384000F05ABB38BD08020020A5
:104C600070B5CD1C25F0030508350C2D38BF0C257B
:104C7000002D064601DBA94202D90C23336046E031
:104C800000F044FB234B1C681A462146A1B10B6877
:104C90005B1B0ED40B2B03D90B60CC18CD501EE040
:104CA0008C420BBF63684B681360636018BF0C468F
:104CB00015E00C464968E9E7174C23681BB93046F4
:104CC00000F0A6F920602946304600F0A1F9431C07
:104CD00018D0C41C24F00304A0420DD12560304636
:104CE00000F015FB04F10B00231D20F00700C31A90
:104CF0000ED05A42E25070BD211A304600F088F9B9
:104D00000130EBD10C233360304600F000FB002073
:104D100070BD00BF0802002004020020936810B498
:104D2000013B002B936008DA9469A34202DBCBB20B
:104D30000A2B02D110BC00F0BFB91368581C1060D8
:104D40001970C8B210BC7047F8B506460F46144635
:104D5000D518AC4208D03A4614F8011B3046FFF78C
:104D6000DDFF431CF5D100E00020F8BD2DE9F04F38
:104D70009DB00C4617460393064618B183690BB9DC
:104D8000FFF726FB7F4B9C4201D1746808E07E4B05
:104D90009C4201D1B46803E07C4B9C4208BFF4689C
:104DA000A38918070CD5236953B100230993202345
:104DB0008DF8293030238DF82A30DFF8D4B144E063
:104DC0002146304600F0DEF90028EED04FF0FF30EB
:104DD000D5E0039A111D12680391002A80F28C809D
:104DE000524243F002000792049098F800302E2BB4
:104DF00000F08480032298F800106548FFF7E8FB74
:104E000048B14023CBEB000003FA00F0049B08F10B
:104E100001081843049098F8001006225D4808F134
:104E200001078DF82810FFF7D3FB002800F09580CC
:104E3000594B002B40F08880039B073323F0070376
:104E400008330393099B53440993B846454615F824
:104E5000013B1BB9B8EB07090FD003E0252BF9D0B4
:104E6000A846F3E74B463A4621463046FFF76CFF2B
:104E700001307FD0099B4B44099398F80030002BF8
:104E800078D000234FF0FF320493079305920693E6
:104E90008DF853301A930127052229783F48FFF7F0
:104EA00097FB05F10108049B38B13C4A4546801A3E
:104EB00007FA00F018430490EEE7D90644BF202219
:104EC0008DF853201A0744BF2B228DF853202A78DF
:104ED0002A2A3FF47EAF079A00210A20A84698F8B4
:104EE00000300135303B092B03D800FB0232012191
:104EF000F4E700293FF479AF079276E798F801309C
:104F00002A2B0BD1039B08F102081A1D1B68039280
:104F1000002BB8BF4FF0FF3305936BE70023194612
:104F2000059308F101000A25804698F80020013019
:104F3000303A092A03D805FB01210123F4E7002BAD
:104F40003FF458AF059155E703AB00932246144B4D
:104F500004A93046FDF772FE07E003AB009322463A
:104F60000F4B04A93046FEF723F9B0F1FF3F82460C
:104F70007FF468AFA3895B063FF528AF09981DB0A1
:104F8000BDE8F08F0C5400082C5400084C54000865
:104F900072550008765500083D2C00086C55000835
:104FA000494D000870B50D461446064618B1836990
:104FB0000BB9FFF70DFA134B9C4201D1746808E05E
:104FC000114B9C4201D1B46803E0104B9C4208BFD6
:104FD000F468A368013B002BA3600CDAA26993423A
:104FE00002DBEBB20A2B06D1224629463046BDE849
:104FF000704000F061B82368E8B25A1C22601D704E
:1050000070BD00BF0C5400082C5400084C5400081C
:1050100038B5064C0023054608462360FDF754FAD0
:10502000431C02D1236803B12B6038BD400200202D
:1050300010B50C46B1F90E1000F06AF90028ABBFAC
:10504000636DA3891B1823F48053ACBF6365A381F0
:1050500010BD2DE9F0411F468B890546DB050C4646
:10506000164605D502230022B1F90E1000F02AF9E8
:10507000A389324623F48053A381B4F90E103B4632
:105080002846BDE8F04100F06BB810B50C46B1F908
:105090000E1000F017F9431CA38915BF606523F4B7
:1050A000805343F48053A38118BFA38110BDB1F98D
:1050B0000E1000F0D5B80000F8B50F4614460546AE
:1050C00018B183690BB9FFF783F9224B9C4201D1D8
:1050D0006C6808E0204B9C4201D1AC6803E01F4B98
:1050E0009C4208BFEC68A369A360A3891A0709D58D
:1050F00023693BB123682069FEB2181A636998429C
:105100000FDB08E02146284600F03CF80028F1D0EB
:105110004FF0FF361BE021462846FFF7EFF8002846
:10512000F6D1A3680130013BA36023685A1C2260BA
:105130001F706369984204D0A389DB0707D50A2E44
:1051400005D121462846FFF7D9F80028E0D130469E
:10515000F8BD00BF0C5400082C5400084C54000843
:1051600038B5074C054608461146002222601A460B
:10517000FDF79CF9431C02D1236803B12B6038BDB5
:1051800040020020324B70B51D6806460C4625B122
:10519000AB6913B92846FFF71BF92E4B9C4201D18E
:1051A0006C6808E02C4B9C4201D1AC6803E02B4BAF
:1051B0009C4208BFEC68B4F90C309AB215071DD4B4
:1051C000D00602D4092232603AE0510712D5616B51
:1051D00041B104F14403994202D03046FFF7F4FC98
:1051E00000236363A38923F02403A3810023636066
:1051F00023692360A38943F00803A38123694BB982
:10520000A38903F42073B3F5007F03D02146304611
:10521000FFF79AF9A28912F0010305D00023A360D9
:1052200063695B42A36103E0920758BF6369A360AF
:1052300023695BB9B4F90C3003F0800080B230B15F
:1052400043F04003A3814FF0FF3070BD002070BDDC
:10525000700000200C5400082C5400084C54000826
:1052600038B5064C0023054608462360FDF748F98B
:10527000431C02D1236803B12B6038BD40020020DB
:1052800038B5074C00230546084611462360FDF754
:105290003BF9431C02D1236803B12B6038BD00BF2A
:1052A0004002002038B5064C00230546084623601E
:1052B000FDF730F9431C02D1236803B12B6038BDE0
:1052C0004002002038B5074C05460846114600222A
:1052D00022601A46FDF720F9431C02D1236803B16E
:1052E0002B6038BD4002002082B001B901A93AB15B
:1052F00043B113780B601278101C18BF012003E033
:10530000104601E06FF0010002B07047704770472F
:1053100038B5074C054608461146002222601A4659
:10532000FDF7B4F8431C02D1236803B12B6038BDEC
:105330004002002049B1FF2A85BF8A2303600A701A
:105340004FF0FF3098BF01207047084670470000BB
:10535000F8B500BFF8BC08BC9E467047F8B500BF62
:08536000F8BC08BC9E46704732
:1053680002030405060708090A0B0C0D0E0F10109E
:10537800010200000E0A0E00000000000E0A0A0AD0
:105388000A11110E0C1204081E00000004150E1B51
:105398000E150400000000000000000001020304D4
:1053A800060708090000000001020304252E3266E2
:1053B80000000000572F6D006C6F67001000002080
:1053C800494E4600696E66004E414E006E616E00A1
:1053D800300030313233343536373839414243447E
:1053E80045460030313233343536373839616263F7
:1053F80064656600496E66696E697479004E614E2F
:105408000000000000000000000000000000000094
:105418000000000000000000000000000000000084
:105428000000000000000000000000000000000074
:105438000000000000000000000000000000000064
:105448000000000000000000000000000000000054
:105458000000000000000000000000000000000044
:105468000000000000000000000000000000F03F05
:105478000000000000002440000000000000594027
:105488000000000000408F40000000000088C3407A
:1054980000000000006AF8400000000080842E41EF
:1054A80000000000D01263410000000084D797413B
:1054B8000000000065CDCD41000000205FA0024241
:1054C800000000E876483742000000A2941A6D42B6
:1054D800000040E59C30A2420000901EC4BCD642A9
:1054E80000003426F56B0C430080E03779C3414354
:1054F80000A0D8855734764300C84E676DC1AB43CA
:10550800003D9160E458E143408CB5781DAF1544E7
:1055180050EFE2D6E41A4B4492D54D06CFF08044C2
:10552800F64AE1C7022DB544B49DD9794378EA44D7
:105538000080E03779C34143176E05B5B5B8934687
:10554800F5F93FE9034F384D321D30F94877825A53
:105558003CBF737FDD4F1575050000001900000082
:105568007D000000232D302B2000686C4C00656600
:1055780067454647004300504F534958002E0000E6
:1055880020202020202020202028282828282020EB
:105598002020202020202020202020202020202003
:1055A800881010101010101010101010101010107B
:1055B800040404040404040404041010101010105B
:1055C8001041414141414101010101010101010134
:1055D8000101010101010101010101101010101068
:1055E8001042424242424202020202020202020205
:1055F800020202020202020202020210101010202D
:105608000000000000000000000000000000000092
:105618000000000000000000000000000000000082
:105628000000000000000000000000000000000072
:105638000000000000000000000000000000000062
:105648000000000000000000000000000000000052
:105658000000000000000000000000000000000042
:105668000000000000000000000000000000000032
:105678000000000000000000000000000000000022
:0456880035010008E0
:04568C001101000800
:1056900001000000100000000024F40001000000E0
:1056A000000000000C5400082C5400084C54000862
:1056B00000000000000000000000000000000000EA
:1056C00000000000000000000000000000000000DA
:1056D00000000000000000000000000000000000CA
:1056E00000000000000000000000000000000000BA
:1056F00000000000000000000000000000000000AA
:105700001000002043000000000000000000000026
:105710000000000000000000000000000000000089
:105720000000000043000000000000000000000036
:105730000000000000000000000000000000000069
:105740000000000043000000000000000000000016
:105750000000000000000000000000000000000049
:1057600000000000430000000000000000000000F6
:105770000000000000000000000000000000000029
:1057800000000000430000000000000000000000D6
:105790000000000000000000000000000000000009
:1057A00000000000430000000000000000000000B6
:1057B00000000000000000000000000000000000E9
:1057C0000000000043000000000000000000000096
:1057D00000000000000000000000000000000000C9
:1057E0000000000035530008E952000800000000E6
:1057F0008755000885550008715500087155000847
:105800007155000871550008715500087155000860
:10581000715500087155000871550008FFFFFFFF22
:10582000FFFFFFFFFFFFFFFFFFFF000001004153ED
:105830004349490000000000000000000000000093
:1058400000000000000000000000000000004153C4
:105850004349490000000000000000000000000073
:105860000000000000000000000000000000000038
:040000050800256961
:00000001FF
